{
  "contractName": "PharmaceuticalSupplyChain",
  "abi": [
    {
      "inputs": [],
      "stateMutability": "nonpayable",
      "type": "constructor"
    },
    {
      "anonymous": false,
      "inputs": [
        {
          "indexed": false,
          "internalType": "uint256",
          "name": "id",
          "type": "uint256"
        },
        {
          "indexed": false,
          "internalType": "string",
          "name": "name",
          "type": "string"
        },
        {
          "indexed": false,
          "internalType": "string",
          "name": "manufacturer",
          "type": "string"
        },
        {
          "indexed": false,
          "internalType": "string",
          "name": "batchNumber",
          "type": "string"
        }
      ],
      "name": "DrugCreated",
      "type": "event"
    },
    {
      "anonymous": false,
      "inputs": [
        {
          "indexed": false,
          "internalType": "uint256",
          "name": "id",
          "type": "uint256"
        },
        {
          "indexed": false,
          "internalType": "address",
          "name": "entity",
          "type": "address"
        },
        {
          "indexed": false,
          "internalType": "string",
          "name": "role",
          "type": "string"
        }
      ],
      "name": "EntityAdded",
      "type": "event"
    },
    {
      "anonymous": false,
      "inputs": [
        {
          "indexed": false,
          "internalType": "uint256",
          "name": "id",
          "type": "uint256"
        },
        {
          "indexed": false,
          "internalType": "string",
          "name": "ipfsHash",
          "type": "string"
        }
      ],
      "name": "IPFSHashUpdated",
      "type": "event"
    },
    {
      "anonymous": false,
      "inputs": [
        {
          "indexed": false,
          "internalType": "uint256",
          "name": "id",
          "type": "uint256"
        },
        {
          "indexed": false,
          "internalType": "enum PharmaceuticalSupplyChain.Status",
          "name": "newStatus",
          "type": "uint8"
        },
        {
          "indexed": false,
          "internalType": "address",
          "name": "updatedBy",
          "type": "address"
        }
      ],
      "name": "StatusChanged",
      "type": "event"
    },
    {
      "inputs": [
        {
          "internalType": "address",
          "name": "",
          "type": "address"
        }
      ],
      "name": "authorizedEntities",
      "outputs": [
        {
          "internalType": "bool",
          "name": "",
          "type": "bool"
        }
      ],
      "stateMutability": "view",
      "type": "function",
      "constant": true
    },
    {
      "inputs": [],
      "name": "drugCount",
      "outputs": [
        {
          "internalType": "uint256",
          "name": "",
          "type": "uint256"
        }
      ],
      "stateMutability": "view",
      "type": "function",
      "constant": true
    },
    {
      "inputs": [
        {
          "internalType": "uint256",
          "name": "",
          "type": "uint256"
        }
      ],
      "name": "drugDocumentsIPFSHash",
      "outputs": [
        {
          "internalType": "string",
          "name": "",
          "type": "string"
        }
      ],
      "stateMutability": "view",
      "type": "function",
      "constant": true
    },
    {
      "inputs": [
        {
          "internalType": "uint256",
          "name": "",
          "type": "uint256"
        }
      ],
      "name": "drugs",
      "outputs": [
        {
          "internalType": "string",
          "name": "drugName",
          "type": "string"
        },
        {
          "internalType": "string",
          "name": "manufacturer",
          "type": "string"
        },
        {
          "internalType": "uint256",
          "name": "manufactureTimestamp",
          "type": "uint256"
        },
        {
          "internalType": "string",
          "name": "batchNumber",
          "type": "string"
        },
        {
          "internalType": "string",
          "name": "serialNumber",
          "type": "string"
        },
        {
          "internalType": "enum PharmaceuticalSupplyChain.Status",
          "name": "currentStatus",
          "type": "uint8"
        },
        {
          "internalType": "address",
          "name": "manufacturerAddress",
          "type": "address"
        }
      ],
      "stateMutability": "view",
      "type": "function",
      "constant": true
    },
    {
      "inputs": [],
      "name": "owner",
      "outputs": [
        {
          "internalType": "address",
          "name": "",
          "type": "address"
        }
      ],
      "stateMutability": "view",
      "type": "function",
      "constant": true
    },
    {
      "inputs": [
        {
          "internalType": "address",
          "name": "entity",
          "type": "address"
        }
      ],
      "name": "authorizeEntity",
      "outputs": [],
      "stateMutability": "nonpayable",
      "type": "function"
    },
    {
      "inputs": [
        {
          "internalType": "string",
          "name": "_drugName",
          "type": "string"
        },
        {
          "internalType": "string",
          "name": "_manufacturer",
          "type": "string"
        },
        {
          "internalType": "string",
          "name": "_batchNumber",
          "type": "string"
        },
        {
          "internalType": "string",
          "name": "_serialNumber",
          "type": "string"
        }
      ],
      "name": "createDrug",
      "outputs": [
        {
          "internalType": "uint256",
          "name": "",
          "type": "uint256"
        }
      ],
      "stateMutability": "nonpayable",
      "type": "function"
    },
    {
      "inputs": [
        {
          "internalType": "uint256",
          "name": "_drugId",
          "type": "uint256"
        },
        {
          "internalType": "enum PharmaceuticalSupplyChain.Status",
          "name": "_newStatus",
          "type": "uint8"
        }
      ],
      "name": "updateStatus",
      "outputs": [],
      "stateMutability": "nonpayable",
      "type": "function"
    },
    {
      "inputs": [
        {
          "internalType": "uint256",
          "name": "_drugId",
          "type": "uint256"
        },
        {
          "internalType": "address",
          "name": "_entity",
          "type": "address"
        },
        {
          "internalType": "string",
          "name": "_role",
          "type": "string"
        }
      ],
      "name": "addEntityToSupplyChain",
      "outputs": [],
      "stateMutability": "nonpayable",
      "type": "function"
    },
    {
      "inputs": [
        {
          "internalType": "uint256",
          "name": "_drugId",
          "type": "uint256"
        },
        {
          "internalType": "string",
          "name": "_ipfsHash",
          "type": "string"
        }
      ],
      "name": "setDrugDocumentsIPFSHash",
      "outputs": [],
      "stateMutability": "nonpayable",
      "type": "function"
    },
    {
      "inputs": [
        {
          "internalType": "uint256",
          "name": "_drugId",
          "type": "uint256"
        }
      ],
      "name": "getDrugDocumentsIPFSHash",
      "outputs": [
        {
          "internalType": "string",
          "name": "",
          "type": "string"
        }
      ],
      "stateMutability": "view",
      "type": "function",
      "constant": true
    },
    {
      "inputs": [
        {
          "internalType": "uint256",
          "name": "_drugId",
          "type": "uint256"
        }
      ],
      "name": "getDrugBasicInfo",
      "outputs": [
        {
          "internalType": "string",
          "name": "drugName",
          "type": "string"
        },
        {
          "internalType": "string",
          "name": "manufacturer",
          "type": "string"
        },
        {
          "internalType": "uint256",
          "name": "manufactureTimestamp",
          "type": "uint256"
        },
        {
          "internalType": "string",
          "name": "batchNumber",
          "type": "string"
        },
        {
          "internalType": "string",
          "name": "serialNumber",
          "type": "string"
        },
        {
          "internalType": "enum PharmaceuticalSupplyChain.Status",
          "name": "currentStatus",
          "type": "uint8"
        }
      ],
      "stateMutability": "view",
      "type": "function",
      "constant": true
    },
    {
      "inputs": [
        {
          "internalType": "uint256",
          "name": "_drugId",
          "type": "uint256"
        }
      ],
      "name": "getSupplyChainEntityCount",
      "outputs": [
        {
          "internalType": "uint256",
          "name": "",
          "type": "uint256"
        }
      ],
      "stateMutability": "view",
      "type": "function",
      "constant": true
    },
    {
      "inputs": [
        {
          "internalType": "uint256",
          "name": "_drugId",
          "type": "uint256"
        },
        {
          "internalType": "uint256",
          "name": "_index",
          "type": "uint256"
        }
      ],
      "name": "getSupplyChainEntityAtIndex",
      "outputs": [
        {
          "internalType": "address",
          "name": "entity",
          "type": "address"
        },
        {
          "internalType": "string",
          "name": "role",
          "type": "string"
        },
        {
          "internalType": "uint256",
          "name": "timestamp",
          "type": "uint256"
        }
      ],
      "stateMutability": "view",
      "type": "function",
      "constant": true
    }
  ],
  "bytecode": "0x608060405234801561001057600080fd5b5033600460006101000a81548173ffffffffffffffffffffffffffffffffffffffff021916908373ffffffffffffffffffffffffffffffffffffffff1602179055506001600360003373ffffffffffffffffffffffffffffffffffffffff1673ffffffffffffffffffffffffffffffffffffffff16815260200190815260200160002060006101000a81548160ff0219169083151502179055506123bc806100b96000396000f3fe608060405234801561001057600080fd5b50600436106100ea5760003560e01c80638c967f2e1161008c578063cb8864a311610066578063cb8864a314610276578063e0f13663146102a6578063e9173773146102c2578063fca5e61e146102f2576100ea565b80638c967f2e1461020c5780638da5cb5b146102285780639e9579fe14610246576100ea565b80633a1b3d31116100c85780633a1b3d311461016b5780635618738d146101875780637577ca37146101bc5780637887c4a1146101da576100ea565b806302031024146100ef5780631d8bf0f21461010b57806333616eee1461013b575b600080fd5b610109600480360381019061010491906118e5565b610328565b005b610125600480360381019061012091906119d1565b610413565b6040516101329190611dbc565b60405180910390f35b610155600480360381019061015091906118e5565b6104fc565b6040516101629190611da1565b60405180910390f35b61018560048036038101906101809190611a61565b61051c565b005b6101a1600480360381019061019c91906119d1565b610762565b6040516101b396959493929190611dde565b60405180910390f35b6101c4610a33565b6040516101d19190611fa6565b60405180910390f35b6101f460048036038101906101ef9190611af1565b610a39565b60405161020393929190611d63565b60405180910390f35b61022660048036038101906102219190611a9d565b610c99565b005b610230610dce565b60405161023d9190611d48565b60405180910390f35b610260600480360381019061025b91906119d1565b610df4565b60405161026d9190611dbc565b60405180910390f35b610290600480360381019061028b919061190e565b610e94565b60405161029d9190611fa6565b60405180910390f35b6102c060048036038101906102bb91906119fa565b6111d6565b005b6102dc60048036038101906102d791906119d1565b6114a6565b6040516102e99190611fa6565b60405180910390f35b61030c600480360381019061030791906119d1565b61150c565b60405161031f9796959493929190611e5b565b60405180910390f35b600460009054906101000a900473ffffffffffffffffffffffffffffffffffffffff1673ffffffffffffffffffffffffffffffffffffffff163373ffffffffffffffffffffffffffffffffffffffff16146103b8576040517f08c379a00000000000000000000000000000000000000000000000000000000081526004016103af90611ee6565b60405180910390fd5b6001600360008373ffffffffffffffffffffffffffffffffffffffff1673ffffffffffffffffffffffffffffffffffffffff16815260200190815260200160002060006101000a81548160ff02191690831515021790555050565b60606001548210610459576040517f08c379a000000000000000000000000000000000000000000000000000000000815260040161045090611f26565b60405180910390fd5b600260008381526020019081526020016000208054610477906121ec565b80601f01602080910402602001604051908101604052809291908181526020018280546104a3906121ec565b80156104f05780601f106104c5576101008083540402835291602001916104f0565b820191906000526020600020905b8154815290600101906020018083116104d357829003601f168201915b50505050509050919050565b60036020528060005260406000206000915054906101000a900460ff1681565b600360003373ffffffffffffffffffffffffffffffffffffffff1673ffffffffffffffffffffffffffffffffffffffff16815260200190815260200160002060009054906101000a900460ff166105a8576040517f08c379a000000000000000000000000000000000000000000000000000000000815260040161059f90611f86565b60405180910390fd5b60015482106105ec576040517f08c379a00000000000000000000000000000000000000000000000000000000081526004016105e390611f26565b60405180910390fd5b60008083815260200190815260200160002060050160009054906101000a900460ff166003811115610647577f4e487b7100000000000000000000000000000000000000000000000000000000600052602160045260246000fd5b816003811115610680577f4e487b7100000000000000000000000000000000000000000000000000000000600052602160045260246000fd5b116106c0576040517f08c379a00000000000000000000000000000000000000000000000000000000081526004016106b790611f66565b60405180910390fd5b8060008084815260200190815260200160002060050160006101000a81548160ff0219169083600381111561071e577f4e487b7100000000000000000000000000000000000000000000000000000000600052602160045260246000fd5b02179055507f64b4e1738ffa3ec91ba46d9a17deb4538d2a49ee2f8448a759a49af1374bc46a82823360405161075693929190611fff565b60405180910390a15050565b6060806000606080600060015487106107b0576040517f08c379a00000000000000000000000000000000000000000000000000000000081526004016107a790611f26565b60405180910390fd5b600080600089815260200190815260200160002090508060000181600101826002015483600301846004018560050160009054906101000a900460ff168580546107f9906121ec565b80601f0160208091040260200160405190810160405280929190818152602001828054610825906121ec565b80156108725780601f1061084757610100808354040283529160200191610872565b820191906000526020600020905b81548152906001019060200180831161085557829003601f168201915b50505050509550848054610885906121ec565b80601f01602080910402602001604051908101604052809291908181526020018280546108b1906121ec565b80156108fe5780601f106108d3576101008083540402835291602001916108fe565b820191906000526020600020905b8154815290600101906020018083116108e157829003601f168201915b50505050509450828054610911906121ec565b80601f016020809104026020016040519081016040528092919081815260200182805461093d906121ec565b801561098a5780601f1061095f5761010080835404028352916020019161098a565b820191906000526020600020905b81548152906001019060200180831161096d57829003601f168201915b5050505050925081805461099d906121ec565b80601f01602080910402602001604051908101604052809291908181526020018280546109c9906121ec565b8015610a165780601f106109eb57610100808354040283529160200191610a16565b820191906000526020600020905b8154815290600101906020018083116109f957829003601f168201915b505050505091509650965096509650965096505091939550919395565b60015481565b6000606060006001548510610a83576040517f08c379a0000000000000000000000000000000000000000000000000000000008152600401610a7a90611f26565b60405180910390fd5b600080868152602001908152602001600020600601805490508410610add576040517f08c379a0000000000000000000000000000000000000000000000000000000008152600401610ad490611f46565b60405180910390fd5b60008060008781526020019081526020016000206006018581548110610b2c577f4e487b7100000000000000000000000000000000000000000000000000000000600052603260045260246000fd5b9060005260206000200160009054906101000a900473ffffffffffffffffffffffffffffffffffffffff1690508060008088815260200190815260200160002060070160008373ffffffffffffffffffffffffffffffffffffffff1673ffffffffffffffffffffffffffffffffffffffff16815260200190815260200160002060008089815260200190815260200160002060080160008473ffffffffffffffffffffffffffffffffffffffff1673ffffffffffffffffffffffffffffffffffffffff16815260200190815260200160002054818054610c0b906121ec565b80601f0160208091040260200160405190810160405280929190818152602001828054610c37906121ec565b8015610c845780601f10610c5957610100808354040283529160200191610c84565b820191906000526020600020905b815481529060010190602001808311610c6757829003601f168201915b50505050509150935093509350509250925092565b600360003373ffffffffffffffffffffffffffffffffffffffff1673ffffffffffffffffffffffffffffffffffffffff16815260200190815260200160002060009054906101000a900460ff16610d25576040517f08c379a0000000000000000000000000000000000000000000000000000000008152600401610d1c90611f86565b60405180910390fd5b6001548210610d69576040517f08c379a0000000000000000000000000000000000000000000000000000000008152600401610d6090611f26565b60405180910390fd5b80600260008481526020019081526020016000209080519060200190610d9092919061179b565b507f609fafa9172a967760a94ba36a0408a929aaa66948beccd7e9bb986ec6cac2ca8282604051610dc2929190612036565b60405180910390a15050565b600460009054906101000a900473ffffffffffffffffffffffffffffffffffffffff1681565b60026020528060005260406000206000915090508054610e13906121ec565b80601f0160208091040260200160405190810160405280929190818152602001828054610e3f906121ec565b8015610e8c5780601f10610e6157610100808354040283529160200191610e8c565b820191906000526020600020905b815481529060010190602001808311610e6f57829003601f168201915b505050505081565b6000600360003373ffffffffffffffffffffffffffffffffffffffff1673ffffffffffffffffffffffffffffffffffffffff16815260200190815260200160002060009054906101000a900460ff16610f22576040517f08c379a0000000000000000000000000000000000000000000000000000000008152600401610f1990611f86565b60405180910390fd5b600060016000815480929190610f379061221e565b9190505590506000806000838152602001908152602001600020905086816000019080519060200190610f6b92919061179b565b5085816001019080519060200190610f8492919061179b565b5042816002018190555084816003019080519060200190610fa692919061179b565b5083816004019080519060200190610fbf92919061179b565b5060008160050160006101000a81548160ff0219169083600381111561100e577f4e487b7100000000000000000000000000000000000000000000000000000000600052602160045260246000fd5b0217905550338160050160016101000a81548173ffffffffffffffffffffffffffffffffffffffff021916908373ffffffffffffffffffffffffffffffffffffffff16021790555080600601339080600181540180825580915050600190039060005260206000200160009091909190916101000a81548173ffffffffffffffffffffffffffffffffffffffff021916908373ffffffffffffffffffffffffffffffffffffffff1602179055506040518060400160405280600c81526020017f4d616e75666163747572657200000000000000000000000000000000000000008152508160070160003373ffffffffffffffffffffffffffffffffffffffff1673ffffffffffffffffffffffffffffffffffffffff168152602001908152602001600020908051906020019061114592919061179b565b50428160080160003373ffffffffffffffffffffffffffffffffffffffff1673ffffffffffffffffffffffffffffffffffffffff168152602001908152602001600020819055507fd34dcd2c83e861957b28644390119cafe7033d9c73c4d591ec10ceda10680570828888886040516111c19493929190612066565b60405180910390a18192505050949350505050565b600360003373ffffffffffffffffffffffffffffffffffffffff1673ffffffffffffffffffffffffffffffffffffffff16815260200190815260200160002060009054906101000a900460ff16611262576040517f08c379a000000000000000000000000000000000000000000000000000000000815260040161125990611f86565b60405180910390fd5b60015483106112a6576040517f08c379a000000000000000000000000000000000000000000000000000000000815260040161129d90611f26565b60405180910390fd5b600360008373ffffffffffffffffffffffffffffffffffffffff1673ffffffffffffffffffffffffffffffffffffffff16815260200190815260200160002060009054906101000a900460ff16611332576040517f08c379a000000000000000000000000000000000000000000000000000000000815260040161132990611f06565b60405180910390fd5b600080848152602001908152602001600020600601829080600181540180825580915050600190039060005260206000200160009091909190916101000a81548173ffffffffffffffffffffffffffffffffffffffff021916908373ffffffffffffffffffffffffffffffffffffffff1602179055508060008085815260200190815260200160002060070160008473ffffffffffffffffffffffffffffffffffffffff1673ffffffffffffffffffffffffffffffffffffffff168152602001908152602001600020908051906020019061140e92919061179b565b504260008085815260200190815260200160002060080160008473ffffffffffffffffffffffffffffffffffffffff1673ffffffffffffffffffffffffffffffffffffffff168152602001908152602001600020819055507feb901c60ebf8bab4a2c077b56161ac5d1ad937d5585cb9286adf23779c5f940783838360405161149993929190611fc1565b60405180910390a1505050565b600060015482106114ec576040517f08c379a00000000000000000000000000000000000000000000000000000000081526004016114e390611f26565b60405180910390fd5b600080838152602001908152602001600020600601805490509050919050565b600060205280600052604060002060009150905080600001805461152f906121ec565b80601f016020809104026020016040519081016040528092919081815260200182805461155b906121ec565b80156115a85780601f1061157d576101008083540402835291602001916115a8565b820191906000526020600020905b81548152906001019060200180831161158b57829003601f168201915b5050505050908060010180546115bd906121ec565b80601f01602080910402602001604051908101604052809291908181526020018280546115e9906121ec565b80156116365780601f1061160b57610100808354040283529160200191611636565b820191906000526020600020905b81548152906001019060200180831161161957829003601f168201915b505050505090806002015490806003018054611651906121ec565b80601f016020809104026020016040519081016040528092919081815260200182805461167d906121ec565b80156116ca5780601f1061169f576101008083540402835291602001916116ca565b820191906000526020600020905b8154815290600101906020018083116116ad57829003601f168201915b5050505050908060040180546116df906121ec565b80601f016020809104026020016040519081016040528092919081815260200182805461170b906121ec565b80156117585780601f1061172d57610100808354040283529160200191611758565b820191906000526020600020905b81548152906001019060200180831161173b57829003601f168201915b5050505050908060050160009054906101000a900460ff16908060050160019054906101000a900473ffffffffffffffffffffffffffffffffffffffff16905087565b8280546117a7906121ec565b90600052602060002090601f0160209004810192826117c95760008555611810565b82601f106117e257805160ff1916838001178555611810565b82800160010185558215611810579182015b8281111561180f5782518255916020019190600101906117f4565b5b50905061181d9190611821565b5090565b5b8082111561183a576000816000905550600101611822565b5090565b600061185161184c846120f1565b6120c0565b90508281526020810184848401111561186957600080fd5b6118748482856121aa565b509392505050565b60008135905061188b81612348565b92915050565b6000813590506118a08161235f565b92915050565b600082601f8301126118b757600080fd5b81356118c784826020860161183e565b91505092915050565b6000813590506118df8161236f565b92915050565b6000602082840312156118f757600080fd5b60006119058482850161187c565b91505092915050565b6000806000806080858703121561192457600080fd5b600085013567ffffffffffffffff81111561193e57600080fd5b61194a878288016118a6565b945050602085013567ffffffffffffffff81111561196757600080fd5b611973878288016118a6565b935050604085013567ffffffffffffffff81111561199057600080fd5b61199c878288016118a6565b925050606085013567ffffffffffffffff8111156119b957600080fd5b6119c5878288016118a6565b91505092959194509250565b6000602082840312156119e357600080fd5b60006119f1848285016118d0565b91505092915050565b600080600060608486031215611a0f57600080fd5b6000611a1d868287016118d0565b9350506020611a2e8682870161187c565b925050604084013567ffffffffffffffff811115611a4b57600080fd5b611a57868287016118a6565b9150509250925092565b60008060408385031215611a7457600080fd5b6000611a82858286016118d0565b9250506020611a9385828601611891565b9150509250929050565b60008060408385031215611ab057600080fd5b6000611abe858286016118d0565b925050602083013567ffffffffffffffff811115611adb57600080fd5b611ae7858286016118a6565b9150509250929050565b60008060408385031215611b0457600080fd5b6000611b12858286016118d0565b9250506020611b23858286016118d0565b9150509250929050565b611b368161213d565b82525050565b611b458161214f565b82525050565b611b5481612198565b82525050565b6000611b6582612121565b611b6f818561212c565b9350611b7f8185602086016121b9565b611b8881612323565b840191505092915050565b6000611ba060218361212c565b91507f4f6e6c79206f776e65722063616e2063616c6c20746869732066756e6374696f60008301527f6e000000000000000000000000000000000000000000000000000000000000006020830152604082019050919050565b6000611c0660188361212c565b91507f456e74697479206973206e6f7420617574686f72697a656400000000000000006000830152602082019050919050565b6000611c4660138361212c565b91507f4472756720646f6573206e6f74206578697374000000000000000000000000006000830152602082019050919050565b6000611c8660138361212c565b91507f496e646578206f7574206f6620626f756e6473000000000000000000000000006000830152602082019050919050565b6000611cc660208361212c565b91507f43616e6e6f742072657665727420746f2070726576696f7573207374617475736000830152602082019050919050565b6000611d06600e8361212c565b91507f4e6f7420617574686f72697a65640000000000000000000000000000000000006000830152602082019050919050565b611d428161218e565b82525050565b6000602082019050611d5d6000830184611b2d565b92915050565b6000606082019050611d786000830186611b2d565b8181036020830152611d8a8185611b5a565b9050611d996040830184611d39565b949350505050565b6000602082019050611db66000830184611b3c565b92915050565b60006020820190508181036000830152611dd68184611b5a565b905092915050565b600060c0820190508181036000830152611df88189611b5a565b90508181036020830152611e0c8188611b5a565b9050611e1b6040830187611d39565b8181036060830152611e2d8186611b5a565b90508181036080830152611e418185611b5a565b9050611e5060a0830184611b4b565b979650505050505050565b600060e0820190508181036000830152611e75818a611b5a565b90508181036020830152611e898189611b5a565b9050611e986040830188611d39565b8181036060830152611eaa8187611b5a565b90508181036080830152611ebe8186611b5a565b9050611ecd60a0830185611b4b565b611eda60c0830184611b2d565b98975050505050505050565b60006020820190508181036000830152611eff81611b93565b9050919050565b60006020820190508181036000830152611f1f81611bf9565b9050919050565b60006020820190508181036000830152611f3f81611c39565b9050919050565b60006020820190508181036000830152611f5f81611c79565b9050919050565b60006020820190508181036000830152611f7f81611cb9565b9050919050565b60006020820190508181036000830152611f9f81611cf9565b9050919050565b6000602082019050611fbb6000830184611d39565b92915050565b6000606082019050611fd66000830186611d39565b611fe36020830185611b2d565b8181036040830152611ff58184611b5a565b9050949350505050565b60006060820190506120146000830186611d39565b6120216020830185611b4b565b61202e6040830184611b2d565b949350505050565b600060408201905061204b6000830185611d39565b818103602083015261205d8184611b5a565b90509392505050565b600060808201905061207b6000830187611d39565b818103602083015261208d8186611b5a565b905081810360408301526120a18185611b5a565b905081810360608301526120b58184611b5a565b905095945050505050565b6000604051905081810181811067ffffffffffffffff821117156120e7576120e66122f4565b5b8060405250919050565b600067ffffffffffffffff82111561210c5761210b6122f4565b5b601f19601f8301169050602081019050919050565b600081519050919050565b600082825260208201905092915050565b60006121488261216e565b9050919050565b60008115159050919050565b600081905061216982612334565b919050565b600073ffffffffffffffffffffffffffffffffffffffff82169050919050565b6000819050919050565b60006121a38261215b565b9050919050565b82818337600083830152505050565b60005b838110156121d75780820151818401526020810190506121bc565b838111156121e6576000848401525b50505050565b6000600282049050600182168061220457607f821691505b60208210811415612218576122176122c5565b5b50919050565b60006122298261218e565b91507fffffffffffffffffffffffffffffffffffffffffffffffffffffffffffffffff82141561225c5761225b612267565b5b600182019050919050565b7f4e487b7100000000000000000000000000000000000000000000000000000000600052601160045260246000fd5b7f4e487b7100000000000000000000000000000000000000000000000000000000600052602160045260246000fd5b7f4e487b7100000000000000000000000000000000000000000000000000000000600052602260045260246000fd5b7f4e487b7100000000000000000000000000000000000000000000000000000000600052604160045260246000fd5b6000601f19601f8301169050919050565b6004811061234557612344612296565b5b50565b6123518161213d565b811461235c57600080fd5b50565b6004811061236c57600080fd5b50565b6123788161218e565b811461238357600080fd5b5056fea26469706673582212209c226b99ba3795049bf808503b4294337475ba21ae8015000b3e6afe0141b10064736f6c63430008000033",
  "immutableReferences": {},
  "source": "// SPDX-License-Identifier: MIT\npragma solidity ^0.8.0;\n\ncontract PharmaceuticalSupplyChain {\n    enum Status { Created, Manufactured, Distributed, Dispensed }\n    \n    struct Drug {\n        string drugName;\n        string manufacturer;\n        uint256 manufactureTimestamp;\n        string batchNumber;\n        string serialNumber;\n        Status currentStatus;\n        address manufacturerAddress;\n        address[] supplyChainEntities;\n        mapping(address => string) entityRoles;\n        mapping(address => uint256) entityTimestamps;\n    }\n    \n    // Mapping from drug ID to Drug\n    mapping(uint256 => Drug) public drugs;\n    uint256 public drugCount;\n    \n    // Mapping to store IPFS hashes for additional drug data\n    mapping(uint256 => string) public drugDocumentsIPFSHash;\n    \n    // Events\n    event DrugCreated(uint256 id, string name, string manufacturer, string batchNumber);\n    event StatusChanged(uint256 id, Status newStatus, address updatedBy);\n    event EntityAdded(uint256 id, address entity, string role);\n    event IPFSHashUpdated(uint256 id, string ipfsHash);\n    \n    // Access control\n    mapping(address => bool) public authorizedEntities;\n    address public owner;\n    \n    constructor() {\n        owner = msg.sender;\n        authorizedEntities[msg.sender] = true;\n    }\n    \n    modifier onlyOwner() {\n        require(msg.sender == owner, \"Only owner can call this function\");\n        _;\n    }\n    \n    modifier onlyAuthorized() {\n        require(authorizedEntities[msg.sender], \"Not authorized\");\n        _;\n    }\n    \n    function authorizeEntity(address entity) public onlyOwner {\n        authorizedEntities[entity] = true;\n    }\n    \n    function createDrug(\n        string memory _drugName,\n        string memory _manufacturer,\n        string memory _batchNumber,\n        string memory _serialNumber\n    ) public onlyAuthorized returns (uint256) {\n        uint256 newDrugId = drugCount++;\n        \n        Drug storage newDrug = drugs[newDrugId];\n        newDrug.drugName = _drugName;\n        newDrug.manufacturer = _manufacturer;\n        newDrug.manufactureTimestamp = block.timestamp;\n        newDrug.batchNumber = _batchNumber;\n        newDrug.serialNumber = _serialNumber;\n        newDrug.currentStatus = Status.Created;\n        newDrug.manufacturerAddress = msg.sender;\n        \n        // Add manufacturer as first entity\n        newDrug.supplyChainEntities.push(msg.sender);\n        newDrug.entityRoles[msg.sender] = \"Manufacturer\";\n        newDrug.entityTimestamps[msg.sender] = block.timestamp;\n        \n        emit DrugCreated(newDrugId, _drugName, _manufacturer, _batchNumber);\n        return newDrugId;\n    }\n    \n    function updateStatus(uint256 _drugId, Status _newStatus) public onlyAuthorized {\n        require(_drugId < drugCount, \"Drug does not exist\");\n        require(uint(_newStatus) > uint(drugs[_drugId].currentStatus), \"Cannot revert to previous status\");\n        \n        drugs[_drugId].currentStatus = _newStatus;\n        emit StatusChanged(_drugId, _newStatus, msg.sender);\n    }\n    \n    function addEntityToSupplyChain(\n        uint256 _drugId,\n        address _entity,\n        string memory _role\n    ) public onlyAuthorized {\n        require(_drugId < drugCount, \"Drug does not exist\");\n        require(authorizedEntities[_entity], \"Entity is not authorized\");\n        \n        drugs[_drugId].supplyChainEntities.push(_entity);\n        drugs[_drugId].entityRoles[_entity] = _role;\n        drugs[_drugId].entityTimestamps[_entity] = block.timestamp;\n        \n        emit EntityAdded(_drugId, _entity, _role);\n    }\n    \n    // IPFS hash storage functions\n    function setDrugDocumentsIPFSHash(uint256 _drugId, string memory _ipfsHash) public onlyAuthorized {\n        require(_drugId < drugCount, \"Drug does not exist\");\n        drugDocumentsIPFSHash[_drugId] = _ipfsHash;\n        emit IPFSHashUpdated(_drugId, _ipfsHash);\n    }\n    \n    function getDrugDocumentsIPFSHash(uint256 _drugId) public view returns (string memory) {\n        require(_drugId < drugCount, \"Drug does not exist\");\n        return drugDocumentsIPFSHash[_drugId];\n    }\n    \n    function getDrugBasicInfo(uint256 _drugId) public view returns (\n        string memory drugName,\n        string memory manufacturer,\n        uint256 manufactureTimestamp,\n        string memory batchNumber,\n        string memory serialNumber,\n        Status currentStatus\n    ) {\n        require(_drugId <drugCount, \"Drug does not exist\");\n        Drug storage drug = drugs[_drugId];\n        \n        return (\n            drug.drugName,\n            drug.manufacturer,\n            drug.manufactureTimestamp,\n            drug.batchNumber,\n            drug.serialNumber,\n            drug.currentStatus\n        );\n    }\n    \n    function getSupplyChainEntityCount(uint256 _drugId) public view returns (uint256) {\n        require(_drugId < drugCount, \"Drug does not exist\");\n        return drugs[_drugId].supplyChainEntities.length;\n    }\n    \n    function getSupplyChainEntityAtIndex(uint256 _drugId, uint256 _index) public view returns (\n        address entity,\n        string memory role,\n        uint256 timestamp\n    ) {\n        require(_drugId < drugCount, \"Drug does not exist\");\n        require(_index < drugs[_drugId].supplyChainEntities.length, \"Index out of bounds\");\n        \n        address entityAddress = drugs[_drugId].supplyChainEntities[_index];\n        \n        return (\n            entityAddress,\n            drugs[_drugId].entityRoles[entityAddress],\n            drugs[_drugId].entityTimestamps[entityAddress]\n        );\n    }\n}",
  "sourcePath": "E:\\research\\blockchain-pharmacy-project-master\\contracts\\PharmaceuticalSupplyChain.sol",
  "compiler": {
    "name": "solc",
    "version": "0.8.0+commit.c7dfd78e.Emscripten.clang"
  },
  "schemaVersion": "3.4.16",
  "updatedAt": "2025-03-07T04:40:11.529Z",
  "networkType": "ethereum",
  "devdoc": {
    "kind": "dev",
    "methods": {},
    "version": 1
  },
  "userdoc": {
    "kind": "user",
    "methods": {},
    "version": 1
  }
}