{
  "contractName": "PharmaceuticalSupplyChain",
  "abi": [
    {
      "inputs": [],
      "stateMutability": "nonpayable",
      "type": "constructor"
    },
    {
      "anonymous": false,
      "inputs": [
        {
          "indexed": true,
          "internalType": "uint256",
          "name": "drugId",
          "type": "uint256"
        },
        {
          "indexed": true,
          "internalType": "address",
          "name": "manufacturer",
          "type": "address"
        },
        {
          "indexed": false,
          "internalType": "string",
          "name": "drugName",
          "type": "string"
        }
      ],
      "name": "DrugAssigned",
      "type": "event"
    },
    {
      "anonymous": false,
      "inputs": [
        {
          "indexed": true,
          "internalType": "uint256",
          "name": "id",
          "type": "uint256"
        },
        {
          "indexed": false,
          "internalType": "string",
          "name": "name",
          "type": "string"
        },
        {
          "indexed": false,
          "internalType": "string",
          "name": "manufacturer",
          "type": "string"
        },
        {
          "indexed": false,
          "internalType": "string",
          "name": "batchNumber",
          "type": "string"
        }
      ],
      "name": "DrugCreated",
      "type": "event"
    },
    {
      "anonymous": false,
      "inputs": [
        {
          "indexed": true,
          "internalType": "uint256",
          "name": "id",
          "type": "uint256"
        },
        {
          "indexed": false,
          "internalType": "address",
          "name": "entity",
          "type": "address"
        },
        {
          "indexed": false,
          "internalType": "string",
          "name": "role",
          "type": "string"
        }
      ],
      "name": "EntityAdded",
      "type": "event"
    },
    {
      "anonymous": false,
      "inputs": [
        {
          "indexed": true,
          "internalType": "uint256",
          "name": "id",
          "type": "uint256"
        },
        {
          "indexed": false,
          "internalType": "string",
          "name": "ipfsHash",
          "type": "string"
        }
      ],
      "name": "IPFSHashUpdated",
      "type": "event"
    },
    {
      "anonymous": false,
      "inputs": [
        {
          "indexed": true,
          "internalType": "address",
          "name": "user",
          "type": "address"
        },
        {
          "indexed": false,
          "internalType": "enum PharmaceuticalSupplyChain.Role",
          "name": "role",
          "type": "uint8"
        }
      ],
      "name": "RoleAssigned",
      "type": "event"
    },
    {
      "anonymous": false,
      "inputs": [
        {
          "indexed": true,
          "internalType": "uint256",
          "name": "id",
          "type": "uint256"
        },
        {
          "indexed": false,
          "internalType": "enum PharmaceuticalSupplyChain.Status",
          "name": "newStatus",
          "type": "uint8"
        },
        {
          "indexed": false,
          "internalType": "address",
          "name": "updatedBy",
          "type": "address"
        }
      ],
      "name": "StatusChanged",
      "type": "event"
    },
    {
      "inputs": [
        {
          "internalType": "uint256",
          "name": "",
          "type": "uint256"
        }
      ],
      "name": "allUsers",
      "outputs": [
        {
          "internalType": "address",
          "name": "",
          "type": "address"
        }
      ],
      "stateMutability": "view",
      "type": "function",
      "constant": true
    },
    {
      "inputs": [
        {
          "internalType": "address",
          "name": "",
          "type": "address"
        }
      ],
      "name": "authorizedEntities",
      "outputs": [
        {
          "internalType": "bool",
          "name": "",
          "type": "bool"
        }
      ],
      "stateMutability": "view",
      "type": "function",
      "constant": true
    },
    {
      "inputs": [],
      "name": "drugCount",
      "outputs": [
        {
          "internalType": "uint256",
          "name": "",
          "type": "uint256"
        }
      ],
      "stateMutability": "view",
      "type": "function",
      "constant": true
    },
    {
      "inputs": [
        {
          "internalType": "uint256",
          "name": "",
          "type": "uint256"
        }
      ],
      "name": "drugDocumentsIPFSHash",
      "outputs": [
        {
          "internalType": "string",
          "name": "",
          "type": "string"
        }
      ],
      "stateMutability": "view",
      "type": "function",
      "constant": true
    },
    {
      "inputs": [
        {
          "internalType": "uint256",
          "name": "",
          "type": "uint256"
        }
      ],
      "name": "drugs",
      "outputs": [
        {
          "internalType": "string",
          "name": "drugName",
          "type": "string"
        },
        {
          "internalType": "string",
          "name": "manufacturer",
          "type": "string"
        },
        {
          "internalType": "uint256",
          "name": "manufactureTimestamp",
          "type": "uint256"
        },
        {
          "internalType": "string",
          "name": "batchNumber",
          "type": "string"
        },
        {
          "internalType": "string",
          "name": "serialNumber",
          "type": "string"
        },
        {
          "internalType": "enum PharmaceuticalSupplyChain.Status",
          "name": "currentStatus",
          "type": "uint8"
        },
        {
          "internalType": "address",
          "name": "manufacturerAddress",
          "type": "address"
        }
      ],
      "stateMutability": "view",
      "type": "function",
      "constant": true
    },
    {
      "inputs": [
        {
          "internalType": "address",
          "name": "",
          "type": "address"
        }
      ],
      "name": "isUserRegistered",
      "outputs": [
        {
          "internalType": "bool",
          "name": "",
          "type": "bool"
        }
      ],
      "stateMutability": "view",
      "type": "function",
      "constant": true
    },
    {
      "inputs": [
        {
          "internalType": "address",
          "name": "",
          "type": "address"
        },
        {
          "internalType": "uint256",
          "name": "",
          "type": "uint256"
        }
      ],
      "name": "manufacturerDrugs",
      "outputs": [
        {
          "internalType": "uint256",
          "name": "",
          "type": "uint256"
        }
      ],
      "stateMutability": "view",
      "type": "function",
      "constant": true
    },
    {
      "inputs": [],
      "name": "owner",
      "outputs": [
        {
          "internalType": "address",
          "name": "",
          "type": "address"
        }
      ],
      "stateMutability": "view",
      "type": "function",
      "constant": true
    },
    {
      "inputs": [
        {
          "internalType": "address",
          "name": "",
          "type": "address"
        }
      ],
      "name": "userRoles",
      "outputs": [
        {
          "internalType": "enum PharmaceuticalSupplyChain.Role",
          "name": "",
          "type": "uint8"
        }
      ],
      "stateMutability": "view",
      "type": "function",
      "constant": true
    },
    {
      "inputs": [
        {
          "internalType": "enum PharmaceuticalSupplyChain.Role",
          "name": "",
          "type": "uint8"
        },
        {
          "internalType": "uint256",
          "name": "",
          "type": "uint256"
        }
      ],
      "name": "usersByRole",
      "outputs": [
        {
          "internalType": "address",
          "name": "",
          "type": "address"
        }
      ],
      "stateMutability": "view",
      "type": "function",
      "constant": true
    },
    {
      "inputs": [
        {
          "internalType": "address",
          "name": "entity",
          "type": "address"
        }
      ],
      "name": "authorizeEntity",
      "outputs": [],
      "stateMutability": "nonpayable",
      "type": "function"
    },
    {
      "inputs": [
        {
          "internalType": "address",
          "name": "account",
          "type": "address"
        }
      ],
      "name": "isOwner",
      "outputs": [
        {
          "internalType": "bool",
          "name": "",
          "type": "bool"
        }
      ],
      "stateMutability": "view",
      "type": "function",
      "constant": true
    },
    {
      "inputs": [
        {
          "internalType": "address",
          "name": "user",
          "type": "address"
        }
      ],
      "name": "getUserRole",
      "outputs": [
        {
          "internalType": "enum PharmaceuticalSupplyChain.Role",
          "name": "",
          "type": "uint8"
        }
      ],
      "stateMutability": "view",
      "type": "function",
      "constant": true
    },
    {
      "inputs": [
        {
          "internalType": "address",
          "name": "user",
          "type": "address"
        },
        {
          "internalType": "enum PharmaceuticalSupplyChain.Role",
          "name": "role",
          "type": "uint8"
        }
      ],
      "name": "assignRole",
      "outputs": [],
      "stateMutability": "nonpayable",
      "type": "function"
    },
    {
      "inputs": [
        {
          "internalType": "enum PharmaceuticalSupplyChain.Role",
          "name": "role",
          "type": "uint8"
        }
      ],
      "name": "getUsersByRole",
      "outputs": [
        {
          "internalType": "address[]",
          "name": "",
          "type": "address[]"
        }
      ],
      "stateMutability": "view",
      "type": "function",
      "constant": true
    },
    {
      "inputs": [
        {
          "internalType": "address",
          "name": "manufacturer",
          "type": "address"
        },
        {
          "internalType": "string",
          "name": "drugName",
          "type": "string"
        },
        {
          "internalType": "string",
          "name": "batchNumber",
          "type": "string"
        },
        {
          "internalType": "string",
          "name": "serialNumber",
          "type": "string"
        }
      ],
      "name": "addDrugToManufacturer",
      "outputs": [
        {
          "internalType": "uint256",
          "name": "",
          "type": "uint256"
        }
      ],
      "stateMutability": "nonpayable",
      "type": "function"
    },
    {
      "inputs": [
        {
          "internalType": "address",
          "name": "manufacturer",
          "type": "address"
        }
      ],
      "name": "getManufacturerDrugs",
      "outputs": [
        {
          "internalType": "uint256[]",
          "name": "",
          "type": "uint256[]"
        }
      ],
      "stateMutability": "view",
      "type": "function",
      "constant": true
    },
    {
      "inputs": [
        {
          "internalType": "address",
          "name": "manufacturer",
          "type": "address"
        }
      ],
      "name": "getManufacturerDrugCount",
      "outputs": [
        {
          "internalType": "uint256",
          "name": "",
          "type": "uint256"
        }
      ],
      "stateMutability": "view",
      "type": "function",
      "constant": true
    },
    {
      "inputs": [
        {
          "internalType": "address",
          "name": "manufacturer",
          "type": "address"
        },
        {
          "internalType": "uint256",
          "name": "index",
          "type": "uint256"
        }
      ],
      "name": "getManufacturerDrugAtIndex",
      "outputs": [
        {
          "internalType": "uint256",
          "name": "",
          "type": "uint256"
        }
      ],
      "stateMutability": "view",
      "type": "function",
      "constant": true
    },
    {
      "inputs": [
        {
          "internalType": "string",
          "name": "_drugName",
          "type": "string"
        },
        {
          "internalType": "string",
          "name": "_manufacturer",
          "type": "string"
        },
        {
          "internalType": "string",
          "name": "_batchNumber",
          "type": "string"
        },
        {
          "internalType": "string",
          "name": "_serialNumber",
          "type": "string"
        }
      ],
      "name": "createDrug",
      "outputs": [
        {
          "internalType": "uint256",
          "name": "",
          "type": "uint256"
        }
      ],
      "stateMutability": "nonpayable",
      "type": "function"
    },
    {
      "inputs": [
        {
          "internalType": "uint256",
          "name": "_drugId",
          "type": "uint256"
        },
        {
          "internalType": "enum PharmaceuticalSupplyChain.Status",
          "name": "_newStatus",
          "type": "uint8"
        }
      ],
      "name": "updateStatus",
      "outputs": [],
      "stateMutability": "nonpayable",
      "type": "function"
    },
    {
      "inputs": [
        {
          "internalType": "uint256",
          "name": "_drugId",
          "type": "uint256"
        },
        {
          "internalType": "address",
          "name": "_entity",
          "type": "address"
        },
        {
          "internalType": "string",
          "name": "_role",
          "type": "string"
        }
      ],
      "name": "addEntityToSupplyChain",
      "outputs": [],
      "stateMutability": "nonpayable",
      "type": "function"
    },
    {
      "inputs": [
        {
          "internalType": "uint256",
          "name": "_drugId",
          "type": "uint256"
        },
        {
          "internalType": "string",
          "name": "_ipfsHash",
          "type": "string"
        }
      ],
      "name": "setDrugDocumentsIPFSHash",
      "outputs": [],
      "stateMutability": "nonpayable",
      "type": "function"
    },
    {
      "inputs": [
        {
          "internalType": "uint256",
          "name": "_drugId",
          "type": "uint256"
        }
      ],
      "name": "getDrugDocumentsIPFSHash",
      "outputs": [
        {
          "internalType": "string",
          "name": "",
          "type": "string"
        }
      ],
      "stateMutability": "view",
      "type": "function",
      "constant": true
    },
    {
      "inputs": [
        {
          "internalType": "uint256",
          "name": "_drugId",
          "type": "uint256"
        }
      ],
      "name": "getDrugBasicInfo",
      "outputs": [
        {
          "internalType": "string",
          "name": "drugName",
          "type": "string"
        },
        {
          "internalType": "string",
          "name": "manufacturer",
          "type": "string"
        },
        {
          "internalType": "uint256",
          "name": "manufactureTimestamp",
          "type": "uint256"
        },
        {
          "internalType": "string",
          "name": "batchNumber",
          "type": "string"
        },
        {
          "internalType": "string",
          "name": "serialNumber",
          "type": "string"
        },
        {
          "internalType": "enum PharmaceuticalSupplyChain.Status",
          "name": "currentStatus",
          "type": "uint8"
        }
      ],
      "stateMutability": "view",
      "type": "function",
      "constant": true
    },
    {
      "inputs": [
        {
          "internalType": "uint256",
          "name": "_drugId",
          "type": "uint256"
        }
      ],
      "name": "getSupplyChainEntityCount",
      "outputs": [
        {
          "internalType": "uint256",
          "name": "",
          "type": "uint256"
        }
      ],
      "stateMutability": "view",
      "type": "function",
      "constant": true
    },
    {
      "inputs": [
        {
          "internalType": "uint256",
          "name": "_drugId",
          "type": "uint256"
        },
        {
          "internalType": "uint256",
          "name": "_index",
          "type": "uint256"
        }
      ],
      "name": "getSupplyChainEntityAtIndex",
      "outputs": [
        {
          "internalType": "address",
          "name": "entity",
          "type": "address"
        },
        {
          "internalType": "string",
          "name": "role",
          "type": "string"
        },
        {
          "internalType": "uint256",
          "name": "timestamp",
          "type": "uint256"
        }
      ],
      "stateMutability": "view",
      "type": "function",
      "constant": true
    }
  ],
  "bytecode": "0x608060405234801561001057600080fd5b50600480546001600160a01b031916339081179091556000908152600560205260409020805460ff19166001179055612abd8061004e6000396000f3fe608060405234801561001057600080fd5b50600436106101a95760003560e01c80637887c4a1116100f9578063c952079711610097578063ddb7a4de11610071578063ddb7a4de146103c7578063e0f13663146103e7578063e9173773146103fa578063fca5e61e1461040d576101a9565b8063c95207971461038e578063cb8864a3146103a1578063d86c36f7146103b4576101a9565b80639e9579fe116100d35780639e9579fe14610342578063a2bdedf414610355578063ae85873114610368578063c25bd0d21461037b576101a9565b80637887c4a1146102f85780638c967f2e1461031a5780638da5cb5b1461032d576101a9565b806333c3a879116101665780635618738d116101405780635618738d146102a5578063630a195b146102ca57806374d5e100146102dd5780637577ca37146102f0576101a9565b806333c3a879146102525780633a1b3d31146102725780634f3644ac14610285576101a9565b806302031024146101ae578063163f7522146101c35780631d8bf0f2146101ec578063278208511461020c5780632f54bf6e1461022c57806333616eee1461023f575b600080fd5b6101c16101bc366004612149565b610433565b005b6101d66101d1366004612149565b61048a565b6040516101e3919061251f565b60405180910390f35b6101ff6101fa3660046122e4565b61049f565b6040516101e39190612562565b61021f61021a366004612149565b610561565b6040516101e3919061252a565b6101d661023a366004612149565b61057f565b6101d661024d366004612149565b610593565b610265610260366004612149565b6105a8565b6040516101e391906124e7565b6101c1610280366004612351565b61066d565b610298610293366004612149565b61091d565b6040516101e39190612980565b6102b86102b33660046122e4565b610995565b6040516101e3969594939291906125b8565b6101c16102d836600461216a565b610c38565b61021f6102eb366004612149565b610ff7565b61029861100c565b61030b6103063660046123ba565b611012565b6040516101e393929190612466565b6101c1610328366004612375565b611178565b610335611218565b6040516101e39190612426565b6101ff6103503660046122e4565b611227565b6103356103633660046122e4565b6112c1565b610298610376366004612235565b6112eb565b61033561038936600461227a565b6113c9565b61029861039c366004612235565b611401565b6102986103af366004612297565b611432565b6102986103c23660046121a0565b611613565b6103da6103d536600461225e565b611819565b6040516101e3919061249a565b6101c16103f53660046122fc565b6118cb565b6102986104083660046122e4565b611a11565b61042061041b3660046122e4565b611a4a565b6040516101e39796959493929190612628565b6004546001600160a01b031633146104665760405162461bcd60e51b815260040161045d906126d3565b60405180910390fd5b6001600160a01b03166000908152600560205260409020805460ff19166001179055565b60086020526000908152604090205460ff1681565b606060015482106104c25760405162461bcd60e51b815260040161045d9061274b565b600082815260026020526040902080546104db906129d7565b80601f0160208091040260200160405190810160405280929190818152602001828054610507906129d7565b80156105545780601f1061052957610100808354040283529160200191610554565b820191906000526020600020905b81548152906001019060200180831161053757829003601f168201915b505050505090505b919050565b6001600160a01b031660009081526006602052604090205460ff1690565b6004546001600160a01b0390811691161490565b60056020526000908152604090205460ff1681565b606060016001600160a01b03831660009081526006602052604090205460ff1660038111156105e757634e487b7160e01b600052602160045260246000fd5b146106045760405162461bcd60e51b815260040161045d906127a4565b6001600160a01b0382166000908152600360209081526040918290208054835181840281018401909452808452909183018282801561055457602002820191906000526020600020905b81548152602001906001019080831161064e5750505050509050919050565b3360009081526005602052604090205460ff1661069c5760405162461bcd60e51b815260040161045d90612958565b60015482106106bd5760405162461bcd60e51b815260040161045d9061274b565b60008281526020819052604090206005015460ff1660038111156106f157634e487b7160e01b600052602160045260246000fd5b81600381111561071157634e487b7160e01b600052602160045260246000fd5b1161072e5760405162461bcd60e51b815260040161045d90612923565b600181600381111561075057634e487b7160e01b600052602160045260246000fd5b14156107ac5760013360009081526006602052604090205460ff16600381111561078a57634e487b7160e01b600052602160045260246000fd5b146107a75760405162461bcd60e51b815260040161045d906128ab565b61089e565b60028160038111156107ce57634e487b7160e01b600052602160045260246000fd5b14156108255760023360009081526006602052604090205460ff16600381111561080857634e487b7160e01b600052602160045260246000fd5b146107a75760405162461bcd60e51b815260040161045d906127db565b600381600381111561084757634e487b7160e01b600052602160045260246000fd5b141561089e5760033360009081526006602052604090205460ff16600381111561088157634e487b7160e01b600052602160045260246000fd5b1461089e5760405162461bcd60e51b815260040161045d90612824565b6000828152602081905260409020600501805482919060ff191660018360038111156108da57634e487b7160e01b600052602160045260246000fd5b0217905550817f64b4e1738ffa3ec91ba46d9a17deb4538d2a49ee2f8448a759a49af1374bc46a823360405161091192919061253d565b60405180910390a25050565b600060016001600160a01b03831660009081526006602052604090205460ff16600381111561095c57634e487b7160e01b600052602160045260246000fd5b146109795760405162461bcd60e51b815260040161045d906127a4565b506001600160a01b031660009081526003602052604090205490565b6060806000606080600060015487106109c05760405162461bcd60e51b815260040161045d9061274b565b60008781526020819052604090206002810154600582015482548392600184019290916003850191600486019160ff9091169086906109fe906129d7565b80601f0160208091040260200160405190810160405280929190818152602001828054610a2a906129d7565b8015610a775780601f10610a4c57610100808354040283529160200191610a77565b820191906000526020600020905b815481529060010190602001808311610a5a57829003601f168201915b50505050509550848054610a8a906129d7565b80601f0160208091040260200160405190810160405280929190818152602001828054610ab6906129d7565b8015610b035780601f10610ad857610100808354040283529160200191610b03565b820191906000526020600020905b815481529060010190602001808311610ae657829003601f168201915b50505050509450828054610b16906129d7565b80601f0160208091040260200160405190810160405280929190818152602001828054610b42906129d7565b8015610b8f5780601f10610b6457610100808354040283529160200191610b8f565b820191906000526020600020905b815481529060010190602001808311610b7257829003601f168201915b50505050509250818054610ba2906129d7565b80601f0160208091040260200160405190810160405280929190818152602001828054610bce906129d7565b8015610c1b5780601f10610bf057610100808354040283529160200191610c1b565b820191906000526020600020905b815481529060010190602001808311610bfe57829003601f168201915b505050505091509650965096509650965096505091939550919395565b6004546001600160a01b03163314610c625760405162461bcd60e51b815260040161045d906126d3565b6001600160a01b038216610c885760405162461bcd60e51b815260040161045d906126aa565b6001600160a01b03821660009081526008602052604090205460ff1615610f28576001600160a01b03821660009081526006602052604090205460ff16816003811115610ce557634e487b7160e01b600052602160045260246000fd5b816003811115610d0557634e487b7160e01b600052602160045260246000fd5b14610f2257600060096000836003811115610d3057634e487b7160e01b600052602160045260246000fd5b6003811115610d4f57634e487b7160e01b600052602160045260246000fd5b8152602001908152602001600020905060005b8154811015610ea157846001600160a01b0316828281548110610d9557634e487b7160e01b600052603260045260246000fd5b6000918252602090912001546001600160a01b03161415610e8f5781548290610dc0906001906129c0565b81548110610dde57634e487b7160e01b600052603260045260246000fd5b9060005260206000200160009054906101000a90046001600160a01b0316828281548110610e1c57634e487b7160e01b600052603260045260246000fd5b9060005260206000200160006101000a8154816001600160a01b0302191690836001600160a01b0316021790555081805480610e6857634e487b7160e01b600052603160045260246000fd5b600082815260209020810160001990810180546001600160a01b0319169055019055610ea1565b80610e9981612a12565b915050610d62565b5060096000846003811115610ec657634e487b7160e01b600052602160045260246000fd5b6003811115610ee557634e487b7160e01b600052602160045260246000fd5b8152602080820192909252604001600090812080546001810182559082529190200180546001600160a01b0319166001600160a01b038616179055505b50610f32565b610f328282611cb2565b6001600160a01b0382166000908152600660205260409020805482919060ff19166001836003811115610f7557634e487b7160e01b600052602160045260246000fd5b02179055506001600160a01b03821660009081526005602052604090205460ff16610fbe576001600160a01b0382166000908152600560205260409020805460ff191660011790555b816001600160a01b03167f4ac36fa53f167ceb85964be512e01de2a3b8bdb9862f917da079deeeff689b3882604051610911919061252a565b60066020526000908152604090205460ff1681565b60015481565b60006060600060015485106110395760405162461bcd60e51b815260040161045d9061274b565b60008581526020819052604090206006015484106110695760405162461bcd60e51b815260040161045d906128f6565b600085815260208190526040812060060180548690811061109a57634e487b7160e01b600052603260045260246000fd5b60009182526020808320919091015488835282825260408084206001600160a01b03909216808552600783018452818520600890930190935290922054825491935083929182906110ea906129d7565b80601f0160208091040260200160405190810160405280929190818152602001828054611116906129d7565b80156111635780601f1061113857610100808354040283529160200191611163565b820191906000526020600020905b81548152906001019060200180831161114657829003601f168201915b50505050509150935093509350509250925092565b3360009081526005602052604090205460ff166111a75760405162461bcd60e51b815260040161045d90612958565b60015482106111c85760405162461bcd60e51b815260040161045d9061274b565b600082815260026020908152604090912082516111e792840190612018565b50817f609fafa9172a967760a94ba36a0408a929aaa66948beccd7e9bb986ec6cac2ca826040516109119190612562565b6004546001600160a01b031681565b60026020526000908152604090208054611240906129d7565b80601f016020809104026020016040519081016040528092919081815260200182805461126c906129d7565b80156112b95780601f1061128e576101008083540402835291602001916112b9565b820191906000526020600020905b81548152906001019060200180831161129c57829003601f168201915b505050505081565b600781815481106112d157600080fd5b6000918252602090912001546001600160a01b0316905081565b600060016001600160a01b03841660009081526006602052604090205460ff16600381111561132a57634e487b7160e01b600052602160045260246000fd5b146113475760405162461bcd60e51b815260040161045d906127a4565b6001600160a01b038316600090815260036020526040902054821061137e5760405162461bcd60e51b815260040161045d906128f6565b6001600160a01b03831660009081526003602052604090208054839081106113b657634e487b7160e01b600052603260045260246000fd5b9060005260206000200154905092915050565b600960205281600052604060002081815481106113e557600080fd5b6000918252602090912001546001600160a01b03169150829050565b6003602052816000526040600020818154811061141d57600080fd5b90600052602060002001600091509150505481565b3360009081526005602052604081205460ff166114615760405162461bcd60e51b815260040161045d90612958565b60013360009081526006602052604090205460ff16600381111561149557634e487b7160e01b600052602160045260246000fd5b146114b25760405162461bcd60e51b815260040161045d90612868565b60018054600091826114c383612a12565b909155506000818152602081815260409091208851929350916114eb918391908a0190612018565b5085516115019060018301906020890190612018565b50426002820155845161151d9060038301906020880190612018565b5083516115339060048301906020870190612018565b506005810180546001600160a81b031916336101008102919091179091556006820180546001810182556000918252602080832090910180546001600160a01b03191684179055604080518082018252600c81526b26b0b73ab330b1ba3ab932b960a11b8184019081529484526007860190925290912090516115b69290612018565b50336000908152600882016020526040908190204290555182907fd34dcd2c83e861957b28644390119cafe7033d9c73c4d591ec10ceda1068057090611601908a908a908a90612575565b60405180910390a25095945050505050565b6004546000906001600160a01b031633146116405760405162461bcd60e51b815260040161045d906126d3565b60016001600160a01b03861660009081526006602052604090205460ff16600381111561167d57634e487b7160e01b600052602160045260246000fd5b1461169a5760405162461bcd60e51b815260040161045d906127a4565b60008451116116bb5760405162461bcd60e51b815260040161045d90612778565b60018054600091826116cc83612a12565b909155506000818152602081815260409091208751929350916116f491839190890190612018565b506116fe87611dbd565b8051611714916001840191602090910190612018565b50845161172a9060038301906020880190612018565b5083516117409060048301906020870190612018565b506005810180546001600160a81b0319166101006001600160a01b038a1690810291909117909155600090815260036020908152604082208054600181018255908352912001829055817fd34dcd2c83e861957b28644390119cafe7033d9c73c4d591ec10ceda10680570876117b58a611dbd565b886040516117c593929190612575565b60405180910390a2866001600160a01b0316827f3f6552637e1a95173bd96b210440ab6a2143b1f0099ba5b19dc4024ed67b558c886040516118079190612562565b60405180910390a35095945050505050565b60606009600083600381111561183f57634e487b7160e01b600052602160045260246000fd5b600381111561185e57634e487b7160e01b600052602160045260246000fd5b815260200190815260200160002080548060200260200160405190810160405280929190818152602001828054801561055457602002820191906000526020600020905b81546001600160a01b031681526001909101906020018083116118a25750505050509050919050565b3360009081526005602052604090205460ff166118fa5760405162461bcd60e51b815260040161045d90612958565b600154831061191b5760405162461bcd60e51b815260040161045d9061274b565b6001600160a01b03821660009081526005602052604090205460ff166119535760405162461bcd60e51b815260040161045d90612714565b6000838152602081815260408083206006810180546001810182559085528385200180546001600160a01b0319166001600160a01b0388169081179091558452600701825290912082516119a992840190612018565b506000838152602081815260408083206001600160a01b0386168452600801909152908190204290555183907feb901c60ebf8bab4a2c077b56161ac5d1ad937d5585cb9286adf23779c5f940790611a04908590859061243a565b60405180910390a2505050565b60006001548210611a345760405162461bcd60e51b815260040161045d9061274b565b5060009081526020819052604090206006015490565b600060208190529081526040902080548190611a65906129d7565b80601f0160208091040260200160405190810160405280929190818152602001828054611a91906129d7565b8015611ade5780601f10611ab357610100808354040283529160200191611ade565b820191906000526020600020905b815481529060010190602001808311611ac157829003601f168201915b505050505090806001018054611af3906129d7565b80601f0160208091040260200160405190810160405280929190818152602001828054611b1f906129d7565b8015611b6c5780601f10611b4157610100808354040283529160200191611b6c565b820191906000526020600020905b815481529060010190602001808311611b4f57829003601f168201915b505050505090806002015490806003018054611b87906129d7565b80601f0160208091040260200160405190810160405280929190818152602001828054611bb3906129d7565b8015611c005780601f10611bd557610100808354040283529160200191611c00565b820191906000526020600020905b815481529060010190602001808311611be357829003601f168201915b505050505090806004018054611c15906129d7565b80601f0160208091040260200160405190810160405280929190818152602001828054611c41906129d7565b8015611c8e5780601f10611c6357610100808354040283529160200191611c8e565b820191906000526020600020905b815481529060010190602001808311611c7157829003601f168201915b5050506005909301549192505060ff8116906001600160a01b036101009091041687565b6001600160a01b03821660009081526008602052604090205460ff16611d36576007805460018082019092557fa66cc928b5edb82af9bd49922954155ab7b0942694bea4ce44661d9a8736c6880180546001600160a01b0319166001600160a01b0385169081179091556000908152600860205260409020805460ff191690911790555b60096000826003811115611d5a57634e487b7160e01b600052602160045260246000fd5b6003811115611d7957634e487b7160e01b600052602160045260246000fd5b8152602080820192909252604001600090812080546001810182559082529190200180546001600160a01b0319166001600160a01b03939093169290921790915550565b604080518082018252601081526f181899199a1a9b1b9c1cb0b131b232b360811b60208201528151602a80825260608281019094526001600160a01b0385169291600091602082018180368337019050509050600360fc1b81600081518110611e3657634e487b7160e01b600052603260045260246000fd5b60200101906001600160f81b031916908160001a905350600f60fb1b81600181518110611e7357634e487b7160e01b600052603260045260246000fd5b60200101906001600160f81b031916908160001a90535060005b601481101561200f5782600485611ea584600c612989565b60208110611ec357634e487b7160e01b600052603260045260246000fd5b1a60f81b6001600160f81b031916901c60f81c60ff1681518110611ef757634e487b7160e01b600052603260045260246000fd5b01602001516001600160f81b03191682611f128360026129a1565b611f1d906002612989565b81518110611f3b57634e487b7160e01b600052603260045260246000fd5b60200101906001600160f81b031916908160001a9053508284611f5f83600c612989565b60208110611f7d57634e487b7160e01b600052603260045260246000fd5b825191901a600f16908110611fa257634e487b7160e01b600052603260045260246000fd5b01602001516001600160f81b03191682611fbd8360026129a1565b611fc8906003612989565b81518110611fe657634e487b7160e01b600052603260045260246000fd5b60200101906001600160f81b031916908160001a9053508061200781612a12565b915050611e8d565b50949350505050565b828054612024906129d7565b90600052602060002090601f016020900481019282612046576000855561208c565b82601f1061205f57805160ff191683800117855561208c565b8280016001018555821561208c579182015b8281111561208c578251825591602001919060010190612071565b5061209892915061209c565b5090565b5b80821115612098576000815560010161209d565b80356001600160a01b038116811461055c57600080fd5b600082601f8301126120d8578081fd5b813567ffffffffffffffff808211156120f3576120f3612a43565b604051601f8301601f19168101602001828111828210171561211757612117612a43565b60405282815284830160200186101561212e578384fd5b82602086016020830137918201602001929092529392505050565b60006020828403121561215a578081fd5b612163826120b1565b9392505050565b6000806040838503121561217c578081fd5b612185836120b1565b9150602083013561219581612a7a565b809150509250929050565b600080600080608085870312156121b5578182fd5b6121be856120b1565b9350602085013567ffffffffffffffff808211156121da578384fd5b6121e6888389016120c8565b945060408701359150808211156121fb578384fd5b612207888389016120c8565b9350606087013591508082111561221c578283fd5b50612229878288016120c8565b91505092959194509250565b60008060408385031215612247578182fd5b612250836120b1565b946020939093013593505050565b60006020828403121561226f578081fd5b813561216381612a7a565b6000806040838503121561228c578182fd5b823561225081612a7a565b600080600080608085870312156122ac578384fd5b843567ffffffffffffffff808211156122c3578586fd5b6122cf888389016120c8565b955060208701359150808211156121da578485fd5b6000602082840312156122f5578081fd5b5035919050565b600080600060608486031215612310578283fd5b83359250612320602085016120b1565b9150604084013567ffffffffffffffff81111561233b578182fd5b612347868287016120c8565b9150509250925092565b60008060408385031215612363578182fd5b82359150602083013561219581612a7a565b60008060408385031215612387578182fd5b82359150602083013567ffffffffffffffff8111156123a4578182fd5b6123b0858286016120c8565b9150509250929050565b600080604083850312156123cc578182fd5b50508035926020909101359150565b60008151808452815b81811015612400576020818501810151868301820152016123e4565b818111156124115782602083870101525b50601f01601f19169290920160200192915050565b6001600160a01b0391909116815260200190565b6001600160a01b038316815260406020820181905260009061245e908301846123db565b949350505050565b6001600160a01b038416815260606020820181905260009061248a908301856123db565b9050826040830152949350505050565b6020808252825182820181905260009190848201906040850190845b818110156124db5783516001600160a01b0316835292840192918401916001016124b6565b50909695505050505050565b6020808252825182820181905260009190848201906040850190845b818110156124db57835183529284019291840191600101612503565b901515815260200190565b6020810161253783612a59565b91905290565b6040810161254a84612a59565b9281526001600160a01b039190911660209091015290565b60006020825261216360208301846123db565b60006060825261258860608301866123db565b828103602084015261259a81866123db565b905082810360408401526125ae81856123db565b9695505050505050565b600060c082526125cb60c08301896123db565b82810360208401526125dd81896123db565b905086604084015282810360608401526125f781876123db565b9050828103608084015261260b81866123db565b91505061261783612a59565b8260a0830152979650505050505050565b600060e0825261263b60e083018a6123db565b828103602084015261264d818a6123db565b9050876040840152828103606084015261266781886123db565b9050828103608084015261267b81876123db565b91505061268784612a59565b60a08201939093526001600160a01b039190911660c09091015295945050505050565b6020808252600f908201526e496e76616c6964206164647265737360881b604082015260600190565b60208082526021908201527f4f6e6c79206f776e65722063616e2063616c6c20746869732066756e6374696f6040820152603760f91b606082015260800190565b60208082526018908201527f456e74697479206973206e6f7420617574686f72697a65640000000000000000604082015260600190565b602080825260139082015272111c9d59c8191bd95cc81b9bdd08195e1a5cdd606a1b604082015260600190565b602080825260129082015271111c9d59c81b985b59481c995c5d5a5c995960721b604082015260600190565b6020808252601d908201527f41646472657373206973206e6f742061206d616e756661637475726572000000604082015260600190565b60208082526029908201527f4f6e6c79206469737472696275746f72732063616e206d61726b2061732064696040820152681cdd1c9a589d5d195960ba1b606082015260800190565b60208082526024908201527f4f6e6c792072657461696c6572732063616e206d61726b2061732064697370656040820152631b9cd95960e21b606082015260800190565b60208082526023908201527f4f6e6c79206d616e756661637475726572732063616e2063726561746520647260408201526275677360e81b606082015260800190565b6020808252602b908201527f4f6e6c79206d616e756661637475726572732063616e206d61726b206173206d60408201526a185b9d599858dd1d5c995960aa1b606082015260800190565b602080825260139082015272496e646578206f7574206f6620626f756e647360681b604082015260600190565b6020808252818101527f43616e6e6f742072657665727420746f2070726576696f757320737461747573604082015260600190565b6020808252600e908201526d139bdd08185d5d1a1bdc9a5e995960921b604082015260600190565b90815260200190565b6000821982111561299c5761299c612a2d565b500190565b60008160001904831182151516156129bb576129bb612a2d565b500290565b6000828210156129d2576129d2612a2d565b500390565b6002810460018216806129eb57607f821691505b60208210811415612a0c57634e487b7160e01b600052602260045260246000fd5b50919050565b6000600019821415612a2657612a26612a2d565b5060010190565b634e487b7160e01b600052601160045260246000fd5b634e487b7160e01b600052604160045260246000fd5b60048110612a7757634e487b7160e01b600052602160045260246000fd5b50565b60048110612a7757600080fdfea2646970667358221220aa3b28288243251c07d7d98ba257d6be9d23c20de1929f1fd2634a0f23b04a9964736f6c63430008000033",
  "immutableReferences": {},
  "source": "// SPDX-License-Identifier: MIT\npragma solidity ^0.8.0;\n\ncontract PharmaceuticalSupplyChain {\n    enum Status { Created, Manufactured, Distributed, Dispensed }\n    enum Role { Patient, Manufacturer, Distributor, Retailer }\n\n    struct Drug {\n        string drugName;\n        string manufacturer;\n        uint256 manufactureTimestamp;\n        string batchNumber;\n        string serialNumber;\n        Status currentStatus;\n        address manufacturerAddress;\n        address[] supplyChainEntities;\n        mapping(address => string) entityRoles;\n        mapping(address => uint256) entityTimestamps;\n    }\n\n    // Drug tracking\n    mapping(uint256 => Drug) public drugs;\n    uint256 public drugCount;\n    mapping(uint256 => string) public drugDocumentsIPFSHash;\n    mapping(address => uint256[]) public manufacturerDrugs;  // Manufacturer address -> array of drug IDs\n\n    // Access control\n    address public owner;\n    mapping(address => bool) public authorizedEntities;\n    mapping(address => Role) public userRoles;\n\n    // User management\n    address[] public allUsers;\n    mapping(address => bool) public isUserRegistered;\n    mapping(Role => address[]) public usersByRole;\n\n    // Events\n    event DrugCreated(uint256 indexed id, string name, string manufacturer, string batchNumber);\n    event StatusChanged(uint256 indexed id, Status newStatus, address updatedBy);\n    event EntityAdded(uint256 indexed id, address entity, string role);\n    event IPFSHashUpdated(uint256 indexed id, string ipfsHash);\n    event RoleAssigned(address indexed user, Role role);\n    event DrugAssigned(uint256 indexed drugId, address indexed manufacturer, string drugName);\n\n    constructor() {\n        owner = msg.sender;\n        authorizedEntities[msg.sender] = true;\n    }\n\n    modifier onlyOwner() {\n        require(msg.sender == owner, \"Only owner can call this function\");\n        _;\n    }\n\n    modifier onlyAuthorized() {\n        require(authorizedEntities[msg.sender], \"Not authorized\");\n        _;\n    }\n\n    function _registerUser(address user, Role role) internal {\n        if (!isUserRegistered[user]) {\n            allUsers.push(user);\n            isUserRegistered[user] = true;\n        }\n        usersByRole[role].push(user);\n    }\n\n    function authorizeEntity(address entity) public onlyOwner {\n        authorizedEntities[entity] = true;\n    }\n\n    function isOwner(address account) public view returns (bool) {\n        return account == owner;\n    }\n\n    function getUserRole(address user) public view returns (Role) {\n        return userRoles[user];\n    }\n\n    function assignRole(address user, Role role) public onlyOwner {\n        require(user != address(0), \"Invalid address\");\n\n        // Handle role changes\n        if (isUserRegistered[user]) {\n            Role previousRole = userRoles[user];\n            if (previousRole != role) {\n                // Remove from previous role array\n                address[] storage previousRoleUsers = usersByRole[previousRole];\n                for (uint i = 0; i < previousRoleUsers.length; i++) {\n                    if (previousRoleUsers[i] == user) {\n                        previousRoleUsers[i] = previousRoleUsers[previousRoleUsers.length - 1];\n                        previousRoleUsers.pop();\n                        break;\n                    }\n                }\n                usersByRole[role].push(user);\n            }\n        } else {\n            _registerUser(user, role);\n        }\n\n        // Update role and authorization\n        userRoles[user] = role;\n        if (!authorizedEntities[user]) {\n            authorizedEntities[user] = true;\n        }\n\n        emit RoleAssigned(user, role);\n    }\n\n    function getUsersByRole(Role role) public view returns (address[] memory) {\n        return usersByRole[role];\n    }\n\n    // New function for admin to assign drugs to manufacturers\n    function addDrugToManufacturer(\n        address manufacturer,\n        string memory drugName,\n        string memory batchNumber,\n        string memory serialNumber\n    ) external onlyOwner returns (uint256) {\n        require(userRoles[manufacturer] == Role.Manufacturer, \"Address is not a manufacturer\");\n        require(bytes(drugName).length > 0, \"Drug name required\");\n\n        uint256 newDrugId = drugCount++;\n\n        Drug storage newDrug = drugs[newDrugId];\n        newDrug.drugName = drugName;\n        newDrug.manufacturer = addressToString(manufacturer); // Convert address to string\n        newDrug.batchNumber = batchNumber;\n        newDrug.serialNumber = serialNumber;\n        newDrug.currentStatus = Status.Created;\n        newDrug.manufacturerAddress = manufacturer;\n\n        manufacturerDrugs[manufacturer].push(newDrugId);\n\n        emit DrugCreated(newDrugId, drugName, addressToString(manufacturer), batchNumber);\n        emit DrugAssigned(newDrugId, manufacturer, drugName);\n\n        return newDrugId;\n    }\n\n    // Get all drugs assigned to a manufacturer\n    function getManufacturerDrugs(address manufacturer) public view returns (uint256[] memory) {\n        require(userRoles[manufacturer] == Role.Manufacturer, \"Address is not a manufacturer\");\n        return manufacturerDrugs[manufacturer];\n    }\n\n    // Get count of manufacturer's drugs\n    function getManufacturerDrugCount(address manufacturer) public view returns (uint256) {\n        require(userRoles[manufacturer] == Role.Manufacturer, \"Address is not a manufacturer\");\n        return manufacturerDrugs[manufacturer].length;\n    }\n\n    // Get drug IDs by index for a manufacturer\n    function getManufacturerDrugAtIndex(address manufacturer, uint256 index) public view returns (uint256) {\n        require(userRoles[manufacturer] == Role.Manufacturer, \"Address is not a manufacturer\");\n        require(index < manufacturerDrugs[manufacturer].length, \"Index out of bounds\");\n        return manufacturerDrugs[manufacturer][index];\n    }\n\n    // Helper function to convert address to string\n    function addressToString(address _addr) internal pure returns (string memory) {\n        bytes32 value = bytes32(uint256(uint160(_addr)));\n        bytes memory alphabet = \"0123456789abcdef\";\n\n        bytes memory str = new bytes(42);\n        str[0] = '0';\n        str[1] = 'x';\n        for (uint256 i = 0; i < 20; i++) {\n            str[2+i*2] = alphabet[uint8(value[i + 12] >> 4)];\n            str[3+i*2] = alphabet[uint8(value[i + 12] & 0x0f)];\n        }\n        return string(str);\n    }\n\n    function createDrug(\n        string memory _drugName,\n        string memory _manufacturer,\n        string memory _batchNumber,\n        string memory _serialNumber\n    ) public onlyAuthorized returns (uint256) {\n        require(userRoles[msg.sender] == Role.Manufacturer, \"Only manufacturers can create drugs\");\n\n        uint256 newDrugId = drugCount++;\n\n        Drug storage newDrug = drugs[newDrugId];\n        newDrug.drugName = _drugName;\n        newDrug.manufacturer = _manufacturer;\n        newDrug.manufactureTimestamp = block.timestamp;\n        newDrug.batchNumber = _batchNumber;\n        newDrug.serialNumber = _serialNumber;\n        newDrug.currentStatus = Status.Created;\n        newDrug.manufacturerAddress = msg.sender;\n\n        newDrug.supplyChainEntities.push(msg.sender);\n        newDrug.entityRoles[msg.sender] = \"Manufacturer\";\n        newDrug.entityTimestamps[msg.sender] = block.timestamp;\n\n        emit DrugCreated(newDrugId, _drugName, _manufacturer, _batchNumber);\n        return newDrugId;\n    }\n\n    function updateStatus(uint256 _drugId, Status _newStatus) public onlyAuthorized {\n        require(_drugId < drugCount, \"Drug does not exist\");\n        require(uint(_newStatus) > uint(drugs[_drugId].currentStatus), \"Cannot revert to previous status\");\n\n        if (_newStatus == Status.Manufactured) {\n            require(userRoles[msg.sender] == Role.Manufacturer, \"Only manufacturers can mark as manufactured\");\n        } else if (_newStatus == Status.Distributed) {\n            require(userRoles[msg.sender] == Role.Distributor, \"Only distributors can mark as distributed\");\n        } else if (_newStatus == Status.Dispensed) {\n            require(userRoles[msg.sender] == Role.Retailer, \"Only retailers can mark as dispensed\");\n        }\n\n        drugs[_drugId].currentStatus = _newStatus;\n        emit StatusChanged(_drugId, _newStatus, msg.sender);\n    }\n\n    function addEntityToSupplyChain(\n        uint256 _drugId,\n        address _entity,\n        string memory _role\n    ) public onlyAuthorized {\n        require(_drugId < drugCount, \"Drug does not exist\");\n        require(authorizedEntities[_entity], \"Entity is not authorized\");\n\n        drugs[_drugId].supplyChainEntities.push(_entity);\n        drugs[_drugId].entityRoles[_entity] = _role;\n        drugs[_drugId].entityTimestamps[_entity] = block.timestamp;\n\n        emit EntityAdded(_drugId, _entity, _role);\n    }\n\n    function setDrugDocumentsIPFSHash(uint256 _drugId, string memory _ipfsHash) public onlyAuthorized {\n        require(_drugId < drugCount, \"Drug does not exist\");\n        drugDocumentsIPFSHash[_drugId] = _ipfsHash;\n        emit IPFSHashUpdated(_drugId, _ipfsHash);\n    }\n\n    function getDrugDocumentsIPFSHash(uint256 _drugId) public view returns (string memory) {\n        require(_drugId < drugCount, \"Drug does not exist\");\n        return drugDocumentsIPFSHash[_drugId];\n    }\n\n    function getDrugBasicInfo(uint256 _drugId) public view returns (\n        string memory drugName,\n        string memory manufacturer,\n        uint256 manufactureTimestamp,\n        string memory batchNumber,\n        string memory serialNumber,\n        Status currentStatus\n    ) {\n        require(_drugId < drugCount, \"Drug does not exist\");\n        Drug storage drug = drugs[_drugId];\n\n        return (\n            drug.drugName,\n            drug.manufacturer,\n            drug.manufactureTimestamp,\n            drug.batchNumber,\n            drug.serialNumber,\n            drug.currentStatus\n        );\n    }\n\n    function getSupplyChainEntityCount(uint256 _drugId) public view returns (uint256) {\n        require(_drugId < drugCount, \"Drug does not exist\");\n        return drugs[_drugId].supplyChainEntities.length;\n    }\n\n    function getSupplyChainEntityAtIndex(uint256 _drugId, uint256 _index) public view returns (\n        address entity,\n        string memory role,\n        uint256 timestamp\n    ) {\n        require(_drugId < drugCount, \"Drug does not exist\");\n        require(_index < drugs[_drugId].supplyChainEntities.length, \"Index out of bounds\");\n\n        address entityAddress = drugs[_drugId].supplyChainEntities[_index];\n        return (\n            entityAddress,\n            drugs[_drugId].entityRoles[entityAddress],\n            drugs[_drugId].entityTimestamps[entityAddress]\n        );\n    }\n}",
  "sourcePath": "D:\\research\\research\\blockchain-pharmacy-project-master\\contracts\\PharmaceuticalSupplyChain.sol",
  "compiler": {
    "name": "solc",
    "version": "0.8.0+commit.c7dfd78e.Emscripten.clang"
  },
  "schemaVersion": "3.4.16",
  "updatedAt": "2025-04-27T11:53:57.821Z",
  "networkType": "ethereum",
  "devdoc": {
    "kind": "dev",
    "methods": {},
    "version": 1
  },
  "userdoc": {
    "kind": "user",
    "methods": {},
    "version": 1
  }
}