{
  "contractName": "PharmaceuticalSupplyChain",
  "abi": [
    {
      "inputs": [],
      "stateMutability": "nonpayable",
      "type": "constructor"
    },
    {
      "anonymous": false,
      "inputs": [
        {
          "indexed": true,
          "internalType": "uint256",
          "name": "id",
          "type": "uint256"
        },
        {
          "indexed": false,
          "internalType": "string",
          "name": "name",
          "type": "string"
        },
        {
          "indexed": false,
          "internalType": "string",
          "name": "manufacturer",
          "type": "string"
        },
        {
          "indexed": false,
          "internalType": "string",
          "name": "batchNumber",
          "type": "string"
        }
      ],
      "name": "DrugCreated",
      "type": "event"
    },
    {
      "anonymous": false,
      "inputs": [
        {
          "indexed": true,
          "internalType": "uint256",
          "name": "id",
          "type": "uint256"
        },
        {
          "indexed": false,
          "internalType": "address",
          "name": "entity",
          "type": "address"
        },
        {
          "indexed": false,
          "internalType": "string",
          "name": "role",
          "type": "string"
        }
      ],
      "name": "EntityAdded",
      "type": "event"
    },
    {
      "anonymous": false,
      "inputs": [
        {
          "indexed": true,
          "internalType": "uint256",
          "name": "id",
          "type": "uint256"
        },
        {
          "indexed": false,
          "internalType": "string",
          "name": "ipfsHash",
          "type": "string"
        }
      ],
      "name": "IPFSHashUpdated",
      "type": "event"
    },
    {
      "anonymous": false,
      "inputs": [
        {
          "indexed": true,
          "internalType": "address",
          "name": "user",
          "type": "address"
        },
        {
          "indexed": false,
          "internalType": "enum PharmaceuticalSupplyChain.Role",
          "name": "role",
          "type": "uint8"
        }
      ],
      "name": "RoleAssigned",
      "type": "event"
    },
    {
      "anonymous": false,
      "inputs": [
        {
          "indexed": true,
          "internalType": "uint256",
          "name": "id",
          "type": "uint256"
        },
        {
          "indexed": false,
          "internalType": "enum PharmaceuticalSupplyChain.Status",
          "name": "newStatus",
          "type": "uint8"
        },
        {
          "indexed": false,
          "internalType": "address",
          "name": "updatedBy",
          "type": "address"
        }
      ],
      "name": "StatusChanged",
      "type": "event"
    },
    {
      "inputs": [
        {
          "internalType": "address",
          "name": "",
          "type": "address"
        }
      ],
      "name": "authorizedEntities",
      "outputs": [
        {
          "internalType": "bool",
          "name": "",
          "type": "bool"
        }
      ],
      "stateMutability": "view",
      "type": "function",
      "constant": true
    },
    {
      "inputs": [],
      "name": "drugCount",
      "outputs": [
        {
          "internalType": "uint256",
          "name": "",
          "type": "uint256"
        }
      ],
      "stateMutability": "view",
      "type": "function",
      "constant": true
    },
    {
      "inputs": [
        {
          "internalType": "uint256",
          "name": "",
          "type": "uint256"
        }
      ],
      "name": "drugDocumentsIPFSHash",
      "outputs": [
        {
          "internalType": "string",
          "name": "",
          "type": "string"
        }
      ],
      "stateMutability": "view",
      "type": "function",
      "constant": true
    },
    {
      "inputs": [
        {
          "internalType": "uint256",
          "name": "",
          "type": "uint256"
        }
      ],
      "name": "drugs",
      "outputs": [
        {
          "internalType": "string",
          "name": "drugName",
          "type": "string"
        },
        {
          "internalType": "string",
          "name": "manufacturer",
          "type": "string"
        },
        {
          "internalType": "uint256",
          "name": "manufactureTimestamp",
          "type": "uint256"
        },
        {
          "internalType": "string",
          "name": "batchNumber",
          "type": "string"
        },
        {
          "internalType": "string",
          "name": "serialNumber",
          "type": "string"
        },
        {
          "internalType": "enum PharmaceuticalSupplyChain.Status",
          "name": "currentStatus",
          "type": "uint8"
        },
        {
          "internalType": "address",
          "name": "manufacturerAddress",
          "type": "address"
        }
      ],
      "stateMutability": "view",
      "type": "function",
      "constant": true
    },
    {
      "inputs": [],
      "name": "owner",
      "outputs": [
        {
          "internalType": "address",
          "name": "",
          "type": "address"
        }
      ],
      "stateMutability": "view",
      "type": "function",
      "constant": true
    },
    {
      "inputs": [
        {
          "internalType": "address",
          "name": "",
          "type": "address"
        }
      ],
      "name": "userRoles",
      "outputs": [
        {
          "internalType": "enum PharmaceuticalSupplyChain.Role",
          "name": "",
          "type": "uint8"
        }
      ],
      "stateMutability": "view",
      "type": "function",
      "constant": true
    },
    {
      "inputs": [
        {
          "internalType": "address",
          "name": "entity",
          "type": "address"
        }
      ],
      "name": "authorizeEntity",
      "outputs": [],
      "stateMutability": "nonpayable",
      "type": "function"
    },
    {
      "inputs": [
        {
          "internalType": "address",
          "name": "account",
          "type": "address"
        }
      ],
      "name": "isOwner",
      "outputs": [
        {
          "internalType": "bool",
          "name": "",
          "type": "bool"
        }
      ],
      "stateMutability": "view",
      "type": "function",
      "constant": true
    },
    {
      "inputs": [
        {
          "internalType": "address",
          "name": "user",
          "type": "address"
        }
      ],
      "name": "getUserRole",
      "outputs": [
        {
          "internalType": "enum PharmaceuticalSupplyChain.Role",
          "name": "",
          "type": "uint8"
        }
      ],
      "stateMutability": "view",
      "type": "function",
      "constant": true
    },
    {
      "inputs": [
        {
          "internalType": "address",
          "name": "user",
          "type": "address"
        },
        {
          "internalType": "enum PharmaceuticalSupplyChain.Role",
          "name": "role",
          "type": "uint8"
        }
      ],
      "name": "assignRole",
      "outputs": [],
      "stateMutability": "nonpayable",
      "type": "function"
    },
    {
      "inputs": [
        {
          "internalType": "string",
          "name": "_drugName",
          "type": "string"
        },
        {
          "internalType": "string",
          "name": "_manufacturer",
          "type": "string"
        },
        {
          "internalType": "string",
          "name": "_batchNumber",
          "type": "string"
        },
        {
          "internalType": "string",
          "name": "_serialNumber",
          "type": "string"
        }
      ],
      "name": "createDrug",
      "outputs": [
        {
          "internalType": "uint256",
          "name": "",
          "type": "uint256"
        }
      ],
      "stateMutability": "nonpayable",
      "type": "function"
    },
    {
      "inputs": [
        {
          "internalType": "uint256",
          "name": "_drugId",
          "type": "uint256"
        },
        {
          "internalType": "enum PharmaceuticalSupplyChain.Status",
          "name": "_newStatus",
          "type": "uint8"
        }
      ],
      "name": "updateStatus",
      "outputs": [],
      "stateMutability": "nonpayable",
      "type": "function"
    },
    {
      "inputs": [
        {
          "internalType": "uint256",
          "name": "_drugId",
          "type": "uint256"
        },
        {
          "internalType": "address",
          "name": "_entity",
          "type": "address"
        },
        {
          "internalType": "string",
          "name": "_role",
          "type": "string"
        }
      ],
      "name": "addEntityToSupplyChain",
      "outputs": [],
      "stateMutability": "nonpayable",
      "type": "function"
    },
    {
      "inputs": [
        {
          "internalType": "uint256",
          "name": "_drugId",
          "type": "uint256"
        },
        {
          "internalType": "string",
          "name": "_ipfsHash",
          "type": "string"
        }
      ],
      "name": "setDrugDocumentsIPFSHash",
      "outputs": [],
      "stateMutability": "nonpayable",
      "type": "function"
    },
    {
      "inputs": [
        {
          "internalType": "uint256",
          "name": "_drugId",
          "type": "uint256"
        }
      ],
      "name": "getDrugDocumentsIPFSHash",
      "outputs": [
        {
          "internalType": "string",
          "name": "",
          "type": "string"
        }
      ],
      "stateMutability": "view",
      "type": "function",
      "constant": true
    },
    {
      "inputs": [
        {
          "internalType": "uint256",
          "name": "_drugId",
          "type": "uint256"
        }
      ],
      "name": "getDrugBasicInfo",
      "outputs": [
        {
          "internalType": "string",
          "name": "drugName",
          "type": "string"
        },
        {
          "internalType": "string",
          "name": "manufacturer",
          "type": "string"
        },
        {
          "internalType": "uint256",
          "name": "manufactureTimestamp",
          "type": "uint256"
        },
        {
          "internalType": "string",
          "name": "batchNumber",
          "type": "string"
        },
        {
          "internalType": "string",
          "name": "serialNumber",
          "type": "string"
        },
        {
          "internalType": "enum PharmaceuticalSupplyChain.Status",
          "name": "currentStatus",
          "type": "uint8"
        }
      ],
      "stateMutability": "view",
      "type": "function",
      "constant": true
    },
    {
      "inputs": [
        {
          "internalType": "uint256",
          "name": "_drugId",
          "type": "uint256"
        }
      ],
      "name": "getSupplyChainEntityCount",
      "outputs": [
        {
          "internalType": "uint256",
          "name": "",
          "type": "uint256"
        }
      ],
      "stateMutability": "view",
      "type": "function",
      "constant": true
    },
    {
      "inputs": [
        {
          "internalType": "uint256",
          "name": "_drugId",
          "type": "uint256"
        },
        {
          "internalType": "uint256",
          "name": "_index",
          "type": "uint256"
        }
      ],
      "name": "getSupplyChainEntityAtIndex",
      "outputs": [
        {
          "internalType": "address",
          "name": "entity",
          "type": "address"
        },
        {
          "internalType": "string",
          "name": "role",
          "type": "string"
        },
        {
          "internalType": "uint256",
          "name": "timestamp",
          "type": "uint256"
        }
      ],
      "stateMutability": "view",
      "type": "function",
      "constant": true
    }
  ],
  "bytecode": "0x608060405234801561001057600080fd5b50600580546001600160a01b031916339081179091556000908152600360205260409020805460ff19166001179055611c008061004e6000396000f3fe608060405234801561001057600080fd5b50600436106101165760003560e01c80637577ca37116100a25780639e9579fe116100715780639e9579fe14610269578063cb8864a31461027c578063e0f136631461028f578063e9173773146102a2578063fca5e61e146102b557610116565b80637577ca371461020a5780637887c4a11461021f5780638c967f2e146102415780638da5cb5b1461025457610116565b806333616eee116100e957806333616eee146101995780633a1b3d31146101ac5780635618738d146101bf578063630a195b146101e457806374d5e100146101f757610116565b8063020310241461011b5780631d8bf0f21461013057806327820851146101595780632f54bf6e14610179575b600080fd5b61012e610129366004611462565b6102db565b005b61014361013e366004611564565b610332565b604051610150919061177c565b60405180910390f35b61016c610167366004611462565b6103f4565b604051610150919061173c565b61018c610187366004611462565b610412565b6040516101509190611731565b61018c6101a7366004611462565b610426565b61012e6101ba3660046115d1565b61043b565b6101d26101cd366004611564565b6106e9565b604051610150969594939291906117d2565b61012e6101f2366004611483565b61098c565b61016c610205366004611462565b610aa1565b610212610ab6565b6040516101509190611b33565b61023261022d36600461163d565b610abc565b604051610150939291906116fd565b61012e61024f3660046115f8565b610c22565b61025c610cc2565b60405161015091906116bd565b610143610277366004611564565b610cd1565b61021261028a3660046114bc565b610d6b565b61012e61029d36600461157c565b610f4a565b6102126102b0366004611564565b611090565b6102c86102c3366004611564565b6110c9565b6040516101509796959493929190611840565b6005546001600160a01b0316331461030e5760405162461bcd60e51b8152600401610305906118e9565b60405180910390fd5b6001600160a01b03166000908152600360205260409020805460ff19166001179055565b606060015482106103555760405162461bcd60e51b815260040161030590611961565b6000828152600260205260409020805461036e90611b3c565b80601f016020809104026020016040519081016040528092919081815260200182805461039a90611b3c565b80156103e75780601f106103bc576101008083540402835291602001916103e7565b820191906000526020600020905b8154815290600101906020018083116103ca57829003601f168201915b505050505090505b919050565b6001600160a01b031660009081526004602052604090205460ff1690565b6005546001600160a01b0390811691161490565b60036020526000908152604090205460ff1681565b3360009081526003602052604090205460ff1661046a5760405162461bcd60e51b815260040161030590611b0b565b600154821061048b5760405162461bcd60e51b815260040161030590611961565b60008281526020819052604090206005015460ff1660038111156104bf57634e487b7160e01b600052602160045260246000fd5b8160038111156104df57634e487b7160e01b600052602160045260246000fd5b116104fc5760405162461bcd60e51b815260040161030590611ad6565b600181600381111561051e57634e487b7160e01b600052602160045260246000fd5b1415610578573360009081526004602052604081205460ff16600281111561055657634e487b7160e01b600052602160045260246000fd5b146105735760405162461bcd60e51b815260040161030590611a5e565b61066a565b600281600381111561059a57634e487b7160e01b600052602160045260246000fd5b14156105f15760013360009081526004602052604090205460ff1660028111156105d457634e487b7160e01b600052602160045260246000fd5b146105735760405162461bcd60e51b81526004016103059061198e565b600381600381111561061357634e487b7160e01b600052602160045260246000fd5b141561066a5760023360009081526004602052604090205460ff16600281111561064d57634e487b7160e01b600052602160045260246000fd5b1461066a5760405162461bcd60e51b8152600401610305906119d7565b6000828152602081905260409020600501805482919060ff191660018360038111156106a657634e487b7160e01b600052602160045260246000fd5b0217905550817f64b4e1738ffa3ec91ba46d9a17deb4538d2a49ee2f8448a759a49af1374bc46a82336040516106dd929190611756565b60405180910390a25050565b6060806000606080600060015487106107145760405162461bcd60e51b815260040161030590611961565b60008781526020819052604090206002810154600582015482548392600184019290916003850191600486019160ff90911690869061075290611b3c565b80601f016020809104026020016040519081016040528092919081815260200182805461077e90611b3c565b80156107cb5780601f106107a0576101008083540402835291602001916107cb565b820191906000526020600020905b8154815290600101906020018083116107ae57829003601f168201915b505050505095508480546107de90611b3c565b80601f016020809104026020016040519081016040528092919081815260200182805461080a90611b3c565b80156108575780601f1061082c57610100808354040283529160200191610857565b820191906000526020600020905b81548152906001019060200180831161083a57829003601f168201915b5050505050945082805461086a90611b3c565b80601f016020809104026020016040519081016040528092919081815260200182805461089690611b3c565b80156108e35780601f106108b8576101008083540402835291602001916108e3565b820191906000526020600020905b8154815290600101906020018083116108c657829003601f168201915b505050505092508180546108f690611b3c565b80601f016020809104026020016040519081016040528092919081815260200182805461092290611b3c565b801561096f5780601f106109445761010080835404028352916020019161096f565b820191906000526020600020905b81548152906001019060200180831161095257829003601f168201915b505050505091509650965096509650965096505091939550919395565b6005546001600160a01b031633146109b65760405162461bcd60e51b8152600401610305906118e9565b6001600160a01b0382166109dc5760405162461bcd60e51b8152600401610305906118c0565b6001600160a01b03821660009081526003602052604090205460ff16610a20576001600160a01b0382166000908152600360205260409020805460ff191660011790555b6001600160a01b0382166000908152600460205260409020805482919060ff19166001836002811115610a6357634e487b7160e01b600052602160045260246000fd5b0217905550816001600160a01b03167f4ac36fa53f167ceb85964be512e01de2a3b8bdb9862f917da079deeeff689b38826040516106dd919061173c565b60046020526000908152604090205460ff1681565b60015481565b6000606060006001548510610ae35760405162461bcd60e51b815260040161030590611961565b6000858152602081905260409020600601548410610b135760405162461bcd60e51b815260040161030590611aa9565b6000858152602081905260408120600601805486908110610b4457634e487b7160e01b600052603260045260246000fd5b60009182526020808320919091015488835282825260408084206001600160a01b0390921680855260078301845281852060089093019093529092205482549193508392918290610b9490611b3c565b80601f0160208091040260200160405190810160405280929190818152602001828054610bc090611b3c565b8015610c0d5780601f10610be257610100808354040283529160200191610c0d565b820191906000526020600020905b815481529060010190602001808311610bf057829003601f168201915b50505050509150935093509350509250925092565b3360009081526003602052604090205460ff16610c515760405162461bcd60e51b815260040161030590611b0b565b6001548210610c725760405162461bcd60e51b815260040161030590611961565b60008281526002602090815260409091208251610c9192840190611331565b50817f609fafa9172a967760a94ba36a0408a929aaa66948beccd7e9bb986ec6cac2ca826040516106dd919061177c565b6005546001600160a01b031681565b60026020526000908152604090208054610cea90611b3c565b80601f0160208091040260200160405190810160405280929190818152602001828054610d1690611b3c565b8015610d635780601f10610d3857610100808354040283529160200191610d63565b820191906000526020600020905b815481529060010190602001808311610d4657829003601f168201915b505050505081565b3360009081526003602052604081205460ff16610d9a5760405162461bcd60e51b815260040161030590611b0b565b3360009081526004602052604081205460ff166002811115610dcc57634e487b7160e01b600052602160045260246000fd5b14610de95760405162461bcd60e51b815260040161030590611a1b565b6001805460009182610dfa83611b77565b90915550600081815260208181526040909120885192935091610e22918391908a0190611331565b508551610e389060018301906020890190611331565b504260028201558451610e549060038301906020880190611331565b508351610e6a9060048301906020870190611331565b506005810180546001600160a81b031916336101008102919091179091556006820180546001810182556000918252602080832090910180546001600160a01b03191684179055604080518082018252600c81526b26b0b73ab330b1ba3ab932b960a11b818401908152948452600786019092529091209051610eed9290611331565b50336000908152600882016020526040908190204290555182907fd34dcd2c83e861957b28644390119cafe7033d9c73c4d591ec10ceda1068057090610f38908a908a908a9061178f565b60405180910390a25095945050505050565b3360009081526003602052604090205460ff16610f795760405162461bcd60e51b815260040161030590611b0b565b6001548310610f9a5760405162461bcd60e51b815260040161030590611961565b6001600160a01b03821660009081526003602052604090205460ff16610fd25760405162461bcd60e51b81526004016103059061192a565b6000838152602081815260408083206006810180546001810182559085528385200180546001600160a01b0319166001600160a01b03881690811790915584526007018252909120825161102892840190611331565b506000838152602081815260408083206001600160a01b0386168452600801909152908190204290555183907feb901c60ebf8bab4a2c077b56161ac5d1ad937d5585cb9286adf23779c5f94079061108390859085906116d1565b60405180910390a2505050565b600060015482106110b35760405162461bcd60e51b815260040161030590611961565b5060009081526020819052604090206006015490565b6000602081905290815260409020805481906110e490611b3c565b80601f016020809104026020016040519081016040528092919081815260200182805461111090611b3c565b801561115d5780601f106111325761010080835404028352916020019161115d565b820191906000526020600020905b81548152906001019060200180831161114057829003601f168201915b50505050509080600101805461117290611b3c565b80601f016020809104026020016040519081016040528092919081815260200182805461119e90611b3c565b80156111eb5780601f106111c0576101008083540402835291602001916111eb565b820191906000526020600020905b8154815290600101906020018083116111ce57829003601f168201915b50505050509080600201549080600301805461120690611b3c565b80601f016020809104026020016040519081016040528092919081815260200182805461123290611b3c565b801561127f5780601f106112545761010080835404028352916020019161127f565b820191906000526020600020905b81548152906001019060200180831161126257829003601f168201915b50505050509080600401805461129490611b3c565b80601f01602080910402602001604051908101604052809291908181526020018280546112c090611b3c565b801561130d5780601f106112e25761010080835404028352916020019161130d565b820191906000526020600020905b8154815290600101906020018083116112f057829003601f168201915b5050506005909301549192505060ff8116906001600160a01b036101009091041687565b82805461133d90611b3c565b90600052602060002090601f01602090048101928261135f57600085556113a5565b82601f1061137857805160ff19168380011785556113a5565b828001600101855582156113a5579182015b828111156113a557825182559160200191906001019061138a565b506113b19291506113b5565b5090565b5b808211156113b157600081556001016113b6565b80356001600160a01b03811681146103ef57600080fd5b600082601f8301126113f1578081fd5b813567ffffffffffffffff8082111561140c5761140c611bb4565b604051601f8301601f19168101602001828111828210171561143057611430611bb4565b604052828152848301602001861015611447578384fd5b82602086016020830137918201602001929092529392505050565b600060208284031215611473578081fd5b61147c826113ca565b9392505050565b60008060408385031215611495578081fd5b61149e836113ca565b91506020830135600381106114b1578182fd5b809150509250929050565b600080600080608085870312156114d1578182fd5b843567ffffffffffffffff808211156114e8578384fd5b6114f4888389016113e1565b95506020870135915080821115611509578384fd5b611515888389016113e1565b9450604087013591508082111561152a578384fd5b611536888389016113e1565b9350606087013591508082111561154b578283fd5b50611558878288016113e1565b91505092959194509250565b600060208284031215611575578081fd5b5035919050565b600080600060608486031215611590578283fd5b833592506115a0602085016113ca565b9150604084013567ffffffffffffffff8111156115bb578182fd5b6115c7868287016113e1565b9150509250925092565b600080604083850312156115e3578182fd5b823591506020830135600481106114b1578182fd5b6000806040838503121561160a578182fd5b82359150602083013567ffffffffffffffff811115611627578182fd5b611633858286016113e1565b9150509250929050565b6000806040838503121561164f578182fd5b50508035926020909101359150565b6004811061166e5761166e611b9e565b9052565b60008151808452815b818110156116975760208185018101518683018201520161167b565b818111156116a85782602083870101525b50601f01601f19169290920160200192915050565b6001600160a01b0391909116815260200190565b6001600160a01b03831681526040602082018190526000906116f590830184611672565b949350505050565b6001600160a01b038416815260606020820181905260009061172190830185611672565b9050826040830152949350505050565b901515815260200190565b602081016003831061175057611750611b9e565b91905290565b60408101611764828561165e565b6001600160a01b039290921660209190910152919050565b60006020825261147c6020830184611672565b6000606082526117a26060830186611672565b82810360208401526117b48186611672565b905082810360408401526117c88185611672565b9695505050505050565b600060c082526117e560c0830189611672565b82810360208401526117f78189611672565b905086604084015282810360608401526118118187611672565b905082810360808401526118258186611672565b91505061183560a083018461165e565b979650505050505050565b600060e0825261185360e083018a611672565b8281036020840152611865818a611672565b9050876040840152828103606084015261187f8188611672565b905082810360808401526118938187611672565b9150506118a360a083018561165e565b6001600160a01b039290921660c091909101529695505050505050565b6020808252600f908201526e496e76616c6964206164647265737360881b604082015260600190565b60208082526021908201527f4f6e6c79206f776e65722063616e2063616c6c20746869732066756e6374696f6040820152603760f91b606082015260800190565b60208082526018908201527f456e74697479206973206e6f7420617574686f72697a65640000000000000000604082015260600190565b602080825260139082015272111c9d59c8191bd95cc81b9bdd08195e1a5cdd606a1b604082015260600190565b60208082526029908201527f4f6e6c79206469737472696275746f72732063616e206d61726b2061732064696040820152681cdd1c9a589d5d195960ba1b606082015260800190565b60208082526024908201527f4f6e6c792072657461696c6572732063616e206d61726b2061732064697370656040820152631b9cd95960e21b606082015260800190565b60208082526023908201527f4f6e6c79206d616e756661637475726572732063616e2063726561746520647260408201526275677360e81b606082015260800190565b6020808252602b908201527f4f6e6c79206d616e756661637475726572732063616e206d61726b206173206d60408201526a185b9d599858dd1d5c995960aa1b606082015260800190565b602080825260139082015272496e646578206f7574206f6620626f756e647360681b604082015260600190565b6020808252818101527f43616e6e6f742072657665727420746f2070726576696f757320737461747573604082015260600190565b6020808252600e908201526d139bdd08185d5d1a1bdc9a5e995960921b604082015260600190565b90815260200190565b600281046001821680611b5057607f821691505b60208210811415611b7157634e487b7160e01b600052602260045260246000fd5b50919050565b6000600019821415611b9757634e487b7160e01b81526011600452602481fd5b5060010190565b634e487b7160e01b600052602160045260246000fd5b634e487b7160e01b600052604160045260246000fdfea2646970667358221220dadbe93277daecf3b22d5d801bc9cd3bfaf2af56f7491da045bf11c78952554064736f6c63430008000033",
  "immutableReferences": {},
  "source": "// SPDX-License-Identifier: MIT\npragma solidity ^0.8.0;\n\ncontract PharmaceuticalSupplyChain {\n    enum Status { Created, Manufactured, Distributed, Dispensed }\n    enum Role { Manufacturer, Distributor, Retailer }\n\n    struct Drug {\n        string drugName;\n        string manufacturer;\n        uint256 manufactureTimestamp;\n        string batchNumber;\n        string serialNumber;\n        Status currentStatus;\n        address manufacturerAddress;\n        address[] supplyChainEntities;\n        mapping(address => string) entityRoles;\n        mapping(address => uint256) entityTimestamps;\n    }\n\n    // Mapping from drug ID to Drug\n    mapping(uint256 => Drug) public drugs;\n    uint256 public drugCount;\n\n    // Mapping to store IPFS hashes for additional drug data\n    mapping(uint256 => string) public drugDocumentsIPFSHash;\n\n    // Events\n    event DrugCreated(uint256 indexed id, string name, string manufacturer, string batchNumber);\n    event StatusChanged(uint256 indexed id, Status newStatus, address updatedBy);\n    event EntityAdded(uint256 indexed id, address entity, string role);\n    event IPFSHashUpdated(uint256 indexed id, string ipfsHash);\n    event RoleAssigned(address indexed user, Role role);\n\n    // Access control\n    mapping(address => bool) public authorizedEntities;\n    mapping(address => Role) public userRoles; // Mapping to store user roles\n    address public owner;\n\n    constructor() {\n        owner = msg.sender;\n        authorizedEntities[msg.sender] = true;\n    }\n\n    modifier onlyOwner() {\n        require(msg.sender == owner, \"Only owner can call this function\");\n        _;\n    }\n\n    modifier onlyAuthorized() {\n        require(authorizedEntities[msg.sender], \"Not authorized\");\n        _;\n    }\n\n    function authorizeEntity(address entity) public onlyOwner {\n        authorizedEntities[entity] = true;\n    }\n\n    // Check if an address is the owner\n    function isOwner(address account) public view returns (bool) {\n        return account == owner;\n    }\n\n    // Function to check user role\n    function getUserRole(address user) public view returns (Role) {\n        return userRoles[user];\n    }\n\n    // Improved assignRole function with additional validation\n    function assignRole(address user, Role role) public onlyOwner {\n        require(user != address(0), \"Invalid address\");\n\n        // Authorize entity when assigning role\n        if (!authorizedEntities[user]) {\n            authorizedEntities[user] = true;\n        }\n\n        userRoles[user] = role;\n        emit RoleAssigned(user, role);\n    }\n\n    function createDrug(\n        string memory _drugName,\n        string memory _manufacturer,\n        string memory _batchNumber,\n        string memory _serialNumber\n    ) public onlyAuthorized returns (uint256) {\n        // Validate role\n        require(userRoles[msg.sender] == Role.Manufacturer, \"Only manufacturers can create drugs\");\n\n        uint256 newDrugId = drugCount++;\n\n        Drug storage newDrug = drugs[newDrugId];\n        newDrug.drugName = _drugName;\n        newDrug.manufacturer = _manufacturer;\n        newDrug.manufactureTimestamp = block.timestamp;\n        newDrug.batchNumber = _batchNumber;\n        newDrug.serialNumber = _serialNumber;\n        newDrug.currentStatus = Status.Created;\n        newDrug.manufacturerAddress = msg.sender;\n\n        // Add manufacturer as first entity\n        newDrug.supplyChainEntities.push(msg.sender);\n        newDrug.entityRoles[msg.sender] = \"Manufacturer\";\n        newDrug.entityTimestamps[msg.sender] = block.timestamp;\n\n        emit DrugCreated(newDrugId, _drugName, _manufacturer, _batchNumber);\n        return newDrugId;\n    }\n\n    function updateStatus(uint256 _drugId, Status _newStatus) public onlyAuthorized {\n        require(_drugId < drugCount, \"Drug does not exist\");\n        require(uint(_newStatus) > uint(drugs[_drugId].currentStatus), \"Cannot revert to previous status\");\n\n        // Role-based status updating\n        if (_newStatus == Status.Manufactured) {\n            require(userRoles[msg.sender] == Role.Manufacturer, \"Only manufacturers can mark as manufactured\");\n        } else if (_newStatus == Status.Distributed) {\n            require(userRoles[msg.sender] == Role.Distributor, \"Only distributors can mark as distributed\");\n        } else if (_newStatus == Status.Dispensed) {\n            require(userRoles[msg.sender] == Role.Retailer, \"Only retailers can mark as dispensed\");\n        }\n\n        drugs[_drugId].currentStatus = _newStatus;\n        emit StatusChanged(_drugId, _newStatus, msg.sender);\n    }\n\n    function addEntityToSupplyChain(\n        uint256 _drugId,\n        address _entity,\n        string memory _role\n    ) public onlyAuthorized {\n        require(_drugId < drugCount, \"Drug does not exist\");\n        require(authorizedEntities[_entity], \"Entity is not authorized\");\n\n        drugs[_drugId].supplyChainEntities.push(_entity);\n        drugs[_drugId].entityRoles[_entity] = _role;\n        drugs[_drugId].entityTimestamps[_entity] = block.timestamp;\n\n        emit EntityAdded(_drugId, _entity, _role);\n    }\n\n    // IPFS hash storage functions\n    function setDrugDocumentsIPFSHash(uint256 _drugId, string memory _ipfsHash) public onlyAuthorized {\n        require(_drugId < drugCount, \"Drug does not exist\");\n        drugDocumentsIPFSHash[_drugId] = _ipfsHash;\n        emit IPFSHashUpdated(_drugId, _ipfsHash);\n    }\n\n    function getDrugDocumentsIPFSHash(uint256 _drugId) public view returns (string memory) {\n        require(_drugId < drugCount, \"Drug does not exist\");\n        return drugDocumentsIPFSHash[_drugId];\n    }\n\n    function getDrugBasicInfo(uint256 _drugId) public view returns (\n        string memory drugName,\n        string memory manufacturer,\n        uint256 manufactureTimestamp,\n        string memory batchNumber,\n        string memory serialNumber,\n        Status currentStatus\n    ) {\n        require(_drugId < drugCount, \"Drug does not exist\");\n        Drug storage drug = drugs[_drugId];\n\n        return (\n            drug.drugName,\n            drug.manufacturer,\n            drug.manufactureTimestamp,\n            drug.batchNumber,\n            drug.serialNumber,\n            drug.currentStatus\n        );\n    }\n\n    function getSupplyChainEntityCount(uint256 _drugId) public view returns (uint256) {\n        require(_drugId < drugCount, \"Drug does not exist\");\n        return drugs[_drugId].supplyChainEntities.length;\n    }\n\n    function getSupplyChainEntityAtIndex(uint256 _drugId, uint256 _index) public view returns (\n        address entity,\n        string memory role,\n        uint256 timestamp\n    ) {\n        require(_drugId < drugCount, \"Drug does not exist\");\n        require(_index < drugs[_drugId].supplyChainEntities.length, \"Index out of bounds\");\n\n        address entityAddress = drugs[_drugId].supplyChainEntities[_index];\n\n        return (\n            entityAddress,\n            drugs[_drugId].entityRoles[entityAddress],\n            drugs[_drugId].entityTimestamps[entityAddress]\n        );\n    }\n}",
  "sourcePath": "E:\\research\\blockchain-pharmacy-project-master\\contracts\\PharmaceuticalSupplyChain.sol",
  "compiler": {
    "name": "solc",
    "version": "0.8.0+commit.c7dfd78e.Emscripten.clang"
  },
  "schemaVersion": "3.4.16",
  "updatedAt": "2025-03-24T10:16:43.177Z",
  "networkType": "ethereum",
  "devdoc": {
    "kind": "dev",
    "methods": {},
    "version": 1
  },
  "userdoc": {
    "kind": "user",
    "methods": {},
    "version": 1
  }
}